{
  "contractName": "OpenDeFiGovernance",
  "abi": [
    {
      "inputs": [
        {
          "internalType": "string",
          "name": "name_",
          "type": "string"
        },
        {
          "internalType": "string",
          "name": "symbol_",
          "type": "string"
        },
        {
          "internalType": "uint256",
          "name": "amount_",
          "type": "uint256"
        },
        {
          "internalType": "address",
          "name": "deployer_",
          "type": "address"
        }
      ],
      "stateMutability": "nonpayable",
      "type": "constructor"
    },
    {
      "anonymous": false,
      "inputs": [
        {
          "indexed": true,
          "internalType": "address",
          "name": "owner",
          "type": "address"
        },
        {
          "indexed": true,
          "internalType": "address",
          "name": "spender",
          "type": "address"
        },
        {
          "indexed": false,
          "internalType": "uint256",
          "name": "value",
          "type": "uint256"
        }
      ],
      "name": "Approval",
      "type": "event"
    },
    {
      "anonymous": false,
      "inputs": [
        {
          "indexed": false,
          "internalType": "address",
          "name": "tokenHolder",
          "type": "address"
        },
        {
          "indexed": false,
          "internalType": "uint256",
          "name": "amountLocked",
          "type": "uint256"
        },
        {
          "indexed": false,
          "internalType": "uint256",
          "name": "time",
          "type": "uint256"
        },
        {
          "indexed": false,
          "internalType": "uint256",
          "name": "unlockPeriod",
          "type": "uint256"
        },
        {
          "indexed": false,
          "internalType": "uint256",
          "name": "unlockedPerPeriod",
          "type": "uint256"
        }
      ],
      "name": "NewTokenLock",
      "type": "event"
    },
    {
      "anonymous": false,
      "inputs": [
        {
          "indexed": true,
          "internalType": "address",
          "name": "from",
          "type": "address"
        },
        {
          "indexed": true,
          "internalType": "address",
          "name": "to",
          "type": "address"
        },
        {
          "indexed": false,
          "internalType": "uint256",
          "name": "value",
          "type": "uint256"
        }
      ],
      "name": "Transfer",
      "type": "event"
    },
    {
      "anonymous": false,
      "inputs": [
        {
          "indexed": false,
          "internalType": "address",
          "name": "tokenHolder",
          "type": "address"
        },
        {
          "indexed": false,
          "internalType": "uint256",
          "name": "amountLocked",
          "type": "uint256"
        },
        {
          "indexed": false,
          "internalType": "uint256",
          "name": "time",
          "type": "uint256"
        },
        {
          "indexed": false,
          "internalType": "uint256",
          "name": "unlockPeriod",
          "type": "uint256"
        },
        {
          "indexed": false,
          "internalType": "uint256",
          "name": "unlockedPerPeriod",
          "type": "uint256"
        }
      ],
      "name": "UpdateTokenLock",
      "type": "event"
    },
    {
      "inputs": [
        {
          "internalType": "address",
          "name": "owner",
          "type": "address"
        },
        {
          "internalType": "address",
          "name": "spender",
          "type": "address"
        }
      ],
      "name": "allowance",
      "outputs": [
        {
          "internalType": "uint256",
          "name": "",
          "type": "uint256"
        }
      ],
      "stateMutability": "view",
      "type": "function"
    },
    {
      "inputs": [
        {
          "internalType": "address",
          "name": "spender",
          "type": "address"
        },
        {
          "internalType": "uint256",
          "name": "amount",
          "type": "uint256"
        }
      ],
      "name": "approve",
      "outputs": [
        {
          "internalType": "bool",
          "name": "",
          "type": "bool"
        }
      ],
      "stateMutability": "nonpayable",
      "type": "function"
    },
    {
      "inputs": [
        {
          "internalType": "address",
          "name": "account",
          "type": "address"
        }
      ],
      "name": "balanceOf",
      "outputs": [
        {
          "internalType": "uint256",
          "name": "",
          "type": "uint256"
        }
      ],
      "stateMutability": "view",
      "type": "function"
    },
    {
      "inputs": [
        {
          "internalType": "address",
          "name": "",
          "type": "address"
        }
      ],
      "name": "baseTokensLocked",
      "outputs": [
        {
          "internalType": "uint256",
          "name": "",
          "type": "uint256"
        }
      ],
      "stateMutability": "view",
      "type": "function"
    },
    {
      "inputs": [],
      "name": "decimals",
      "outputs": [
        {
          "internalType": "uint8",
          "name": "",
          "type": "uint8"
        }
      ],
      "stateMutability": "view",
      "type": "function"
    },
    {
      "inputs": [
        {
          "internalType": "address",
          "name": "spender",
          "type": "address"
        },
        {
          "internalType": "uint256",
          "name": "subtractedValue",
          "type": "uint256"
        }
      ],
      "name": "decreaseAllowance",
      "outputs": [
        {
          "internalType": "bool",
          "name": "",
          "type": "bool"
        }
      ],
      "stateMutability": "nonpayable",
      "type": "function"
    },
    {
      "inputs": [
        {
          "internalType": "address",
          "name": "spender",
          "type": "address"
        },
        {
          "internalType": "uint256",
          "name": "addedValue",
          "type": "uint256"
        }
      ],
      "name": "increaseAllowance",
      "outputs": [
        {
          "internalType": "bool",
          "name": "",
          "type": "bool"
        }
      ],
      "stateMutability": "nonpayable",
      "type": "function"
    },
    {
      "inputs": [
        {
          "internalType": "address",
          "name": "",
          "type": "address"
        }
      ],
      "name": "lockTime",
      "outputs": [
        {
          "internalType": "uint256",
          "name": "",
          "type": "uint256"
        }
      ],
      "stateMutability": "view",
      "type": "function"
    },
    {
      "inputs": [],
      "name": "name",
      "outputs": [
        {
          "internalType": "string",
          "name": "",
          "type": "string"
        }
      ],
      "stateMutability": "view",
      "type": "function"
    },
    {
      "inputs": [],
      "name": "symbol",
      "outputs": [
        {
          "internalType": "string",
          "name": "",
          "type": "string"
        }
      ],
      "stateMutability": "view",
      "type": "function"
    },
    {
      "inputs": [],
      "name": "totalSupply",
      "outputs": [
        {
          "internalType": "uint256",
          "name": "",
          "type": "uint256"
        }
      ],
      "stateMutability": "view",
      "type": "function"
    },
    {
      "inputs": [
        {
          "internalType": "address",
          "name": "recipient",
          "type": "address"
        },
        {
          "internalType": "uint256",
          "name": "amount",
          "type": "uint256"
        }
      ],
      "name": "transfer",
      "outputs": [
        {
          "internalType": "bool",
          "name": "",
          "type": "bool"
        }
      ],
      "stateMutability": "nonpayable",
      "type": "function"
    },
    {
      "inputs": [
        {
          "internalType": "address",
          "name": "sender",
          "type": "address"
        },
        {
          "internalType": "address",
          "name": "recipient",
          "type": "address"
        },
        {
          "internalType": "uint256",
          "name": "amount",
          "type": "uint256"
        }
      ],
      "name": "transferFrom",
      "outputs": [
        {
          "internalType": "bool",
          "name": "",
          "type": "bool"
        }
      ],
      "stateMutability": "nonpayable",
      "type": "function"
    },
    {
      "inputs": [
        {
          "internalType": "address",
          "name": "",
          "type": "address"
        }
      ],
      "name": "unlockEpoch",
      "outputs": [
        {
          "internalType": "uint256",
          "name": "",
          "type": "uint256"
        }
      ],
      "stateMutability": "view",
      "type": "function"
    },
    {
      "inputs": [
        {
          "internalType": "address",
          "name": "",
          "type": "address"
        }
      ],
      "name": "unlockedPerEpoch",
      "outputs": [
        {
          "internalType": "uint256",
          "name": "",
          "type": "uint256"
        }
      ],
      "stateMutability": "view",
      "type": "function"
    },
    {
      "inputs": [
        {
          "internalType": "uint256",
          "name": "baseTokensLocked_",
          "type": "uint256"
        },
        {
          "internalType": "uint256",
          "name": "unlockEpoch_",
          "type": "uint256"
        },
        {
          "internalType": "uint256",
          "name": "unlockedPerEpoch_",
          "type": "uint256"
        }
      ],
      "name": "newTokenLock",
      "outputs": [],
      "stateMutability": "nonpayable",
      "type": "function"
    },
    {
      "inputs": [],
      "name": "clearLock",
      "outputs": [],
      "stateMutability": "nonpayable",
      "type": "function"
    },
    {
      "inputs": [
        {
          "internalType": "address",
          "name": "who",
          "type": "address"
        }
      ],
      "name": "balanceUnlocked",
      "outputs": [
        {
          "internalType": "uint256",
          "name": "amount",
          "type": "uint256"
        }
      ],
      "stateMutability": "view",
      "type": "function"
    },
    {
      "inputs": [
        {
          "internalType": "address",
          "name": "who",
          "type": "address"
        }
      ],
      "name": "balanceLocked",
      "outputs": [
        {
          "internalType": "uint256",
          "name": "amount",
          "type": "uint256"
        }
      ],
      "stateMutability": "view",
      "type": "function"
    },
    {
      "inputs": [
        {
          "internalType": "uint256",
          "name": "subtractedValue",
          "type": "uint256"
        }
      ],
      "name": "decreaseUnlockAmount",
      "outputs": [],
      "stateMutability": "nonpayable",
      "type": "function"
    },
    {
      "inputs": [
        {
          "internalType": "uint256",
          "name": "addedValue",
          "type": "uint256"
        }
      ],
      "name": "increaseUnlockTime",
      "outputs": [],
      "stateMutability": "nonpayable",
      "type": "function"
    },
    {
      "inputs": [
        {
          "internalType": "uint256",
          "name": "addedValue",
          "type": "uint256"
        }
      ],
      "name": "increaseTokensLocked",
      "outputs": [],
      "stateMutability": "nonpayable",
      "type": "function"
    }
  ],
  "bytecode": "0x60806040523480156200001157600080fd5b50604051620034b1380380620034b1833981810160405281019062000037919062000653565b838381600390805190602001906200005192919062000503565b5080600490805190602001906200006a92919062000503565b5050506200007f81836200008960201b60201c565b5050505062000b83565b600073ffffffffffffffffffffffffffffffffffffffff168273ffffffffffffffffffffffffffffffffffffffff161415620000fc576040517f08c379a0000000000000000000000000000000000000000000000000000000008152600401620000f3906200078e565b60405180910390fd5b6200011060008383620001ee60201b60201c565b806002600082825462000124919062000848565b92505081905550806000808473ffffffffffffffffffffffffffffffffffffffff1673ffffffffffffffffffffffffffffffffffffffff16815260200190815260200160002060008282546200017b919062000848565b925050819055508173ffffffffffffffffffffffffffffffffffffffff16600073ffffffffffffffffffffffffffffffffffffffff167fddf252ad1be2c89b69c2b068fc378daa952ba7f163c4a11628f55a4df523b3ef83604051620001e29190620007b0565b60405180910390a35050565b600073ffffffffffffffffffffffffffffffffffffffff168373ffffffffffffffffffffffffffffffffffffffff1614806200023a575062000236836200029e60201b60201c565b8111155b6040518060600160405280602781526020016200348a602791399062000298576040517f08c379a00000000000000000000000000000000000000000000000000000000081526004016200028f91906200076a565b60405180910390fd5b50505050565b6000620002b182620002d560201b60201c565b620002c283620004bb60201b60201c565b620002ce91906200093e565b9050919050565b600080600860008473ffffffffffffffffffffffffffffffffffffffff1673ffffffffffffffffffffffffffffffffffffffff168152602001908152602001600020541415620003295760009050620004b6565b6000600660008473ffffffffffffffffffffffffffffffffffffffff1673ffffffffffffffffffffffffffffffffffffffff16815260200190815260200160002054600560008573ffffffffffffffffffffffffffffffffffffffff1673ffffffffffffffffffffffffffffffffffffffff1681526020019081526020016000205442620003b891906200093e565b600760008673ffffffffffffffffffffffffffffffffffffffff1673ffffffffffffffffffffffffffffffffffffffff16815260200190815260200160002054620004049190620008dd565b620004109190620008a5565b905080600860008573ffffffffffffffffffffffffffffffffffffffff1673ffffffffffffffffffffffffffffffffffffffff16815260200190815260200160002054101562000465576000915050620004b6565b80600860008573ffffffffffffffffffffffffffffffffffffffff1673ffffffffffffffffffffffffffffffffffffffff16815260200190815260200160002054620004b291906200093e565b9150505b919050565b60008060008373ffffffffffffffffffffffffffffffffffffffff1673ffffffffffffffffffffffffffffffffffffffff168152602001908152602001600020549050919050565b8280546200051190620009ed565b90600052602060002090601f01602090048101928262000535576000855562000581565b82601f106200055057805160ff191683800117855562000581565b8280016001018555821562000581579182015b828111156200058057825182559160200191906001019062000563565b5b50905062000590919062000594565b5090565b5b80821115620005af57600081600090555060010162000595565b5090565b6000620005ca620005c484620007f6565b620007cd565b905082815260208101848484011115620005e357600080fd5b620005f0848285620009b7565b509392505050565b600081519050620006098162000b4f565b92915050565b600082601f8301126200062157600080fd5b815162000633848260208601620005b3565b91505092915050565b6000815190506200064d8162000b69565b92915050565b600080600080608085870312156200066a57600080fd5b600085015167ffffffffffffffff8111156200068557600080fd5b62000693878288016200060f565b945050602085015167ffffffffffffffff811115620006b157600080fd5b620006bf878288016200060f565b9350506040620006d2878288016200063c565b9250506060620006e587828801620005f8565b91505092959194509250565b6000620006fe826200082c565b6200070a818562000837565b93506200071c818560208601620009b7565b620007278162000b15565b840191505092915050565b600062000741601f8362000837565b91506200074e8262000b26565b602082019050919050565b6200076481620009ad565b82525050565b60006020820190508181036000830152620007868184620006f1565b905092915050565b60006020820190508181036000830152620007a98162000732565b9050919050565b6000602082019050620007c7600083018462000759565b92915050565b6000620007d9620007ec565b9050620007e7828262000a23565b919050565b6000604051905090565b600067ffffffffffffffff82111562000814576200081362000ae6565b5b6200081f8262000b15565b9050602081019050919050565b600081519050919050565b600082825260208201905092915050565b60006200085582620009ad565b91506200086283620009ad565b9250827fffffffffffffffffffffffffffffffffffffffffffffffffffffffffffffffff038211156200089a576200089962000a59565b5b828201905092915050565b6000620008b282620009ad565b9150620008bf83620009ad565b925082620008d257620008d162000a88565b5b828204905092915050565b6000620008ea82620009ad565b9150620008f783620009ad565b9250817fffffffffffffffffffffffffffffffffffffffffffffffffffffffffffffffff048311821515161562000933576200093262000a59565b5b828202905092915050565b60006200094b82620009ad565b91506200095883620009ad565b9250828210156200096e576200096d62000a59565b5b828203905092915050565b600062000986826200098d565b9050919050565b600073ffffffffffffffffffffffffffffffffffffffff82169050919050565b6000819050919050565b60005b83811015620009d7578082015181840152602081019050620009ba565b83811115620009e7576000848401525b50505050565b6000600282049050600182168062000a0657607f821691505b6020821081141562000a1d5762000a1c62000ab7565b5b50919050565b62000a2e8262000b15565b810181811067ffffffffffffffff8211171562000a505762000a4f62000ae6565b5b80604052505050565b7f4e487b7100000000000000000000000000000000000000000000000000000000600052601160045260246000fd5b7f4e487b7100000000000000000000000000000000000000000000000000000000600052601260045260246000fd5b7f4e487b7100000000000000000000000000000000000000000000000000000000600052602260045260246000fd5b7f4e487b7100000000000000000000000000000000000000000000000000000000600052604160045260246000fd5b6000601f19601f8301169050919050565b7f45524332303a206d696e7420746f20746865207a65726f206164647265737300600082015250565b62000b5a8162000979565b811462000b6657600080fd5b50565b62000b7481620009ad565b811462000b8057600080fd5b50565b6128f78062000b936000396000f3fe608060405234801561001057600080fd5b50600436106101425760003560e01c806374af3447116100b8578063a4beda631161007c578063a4beda63146103c3578063a9059cbb146103f3578063c19b803614610423578063c619af141461042d578063d8a67fd514610449578063dd62ed3e1461047957610142565b806374af34471461030d5780637c616fe61461033d57806383f918371461035957806395d89b4114610375578063a457c2d71461039357610142565b806323b872dd1161010a57806323b872dd14610213578063313ce5671461024357806339509351146102615780635d7add48146102915780635fc3a312146102ad57806370a08231146102dd57610142565b80630451f5201461014757806306fdde0314610177578063095ea7b31461019557806318160ddd146101c55780631ca7925c146101e3575b600080fd5b610161600480360381019061015c9190611e0a565b6104a9565b60405161016e919061224c565b60405180910390f35b61017f6104ce565b60405161018c919061214a565b60405180910390f35b6101af60048036038101906101aa9190611ebe565b610560565b6040516101bc919061212f565b60405180910390f35b6101cd61057e565b6040516101da919061224c565b60405180910390f35b6101fd60048036038101906101f89190611e0a565b610588565b60405161020a919061224c565b60405180910390f35b61022d60048036038101906102289190611e6f565b6105a0565b60405161023a919061212f565b60405180910390f35b61024b6106a1565b6040516102589190612267565b60405180910390f35b61027b60048036038101906102769190611ebe565b6106aa565b604051610288919061212f565b60405180910390f35b6102ab60048036038101906102a69190611efa565b610756565b005b6102c760048036038101906102c29190611e0a565b61099b565b6040516102d4919061224c565b60405180910390f35b6102f760048036038101906102f29190611e0a565b610b75565b604051610304919061224c565b60405180910390f35b61032760048036038101906103229190611e0a565b610bbd565b604051610334919061224c565b60405180910390f35b61035760048036038101906103529190611efa565b610bd5565b005b610373600480360381019061036e9190611f23565b610dc4565b005b61037d6111e6565b60405161038a919061214a565b60405180910390f35b6103ad60048036038101906103a89190611ebe565b611278565b6040516103ba919061212f565b60405180910390f35b6103dd60048036038101906103d89190611e0a565b61136c565b6040516103ea919061224c565b60405180910390f35b61040d60048036038101906104089190611ebe565b611384565b60405161041a919061212f565b60405180910390f35b61042b6113a2565b005b61044760048036038101906104429190611efa565b61151f565b005b610463600480360381019061045e9190611e0a565b61170f565b604051610470919061224c565b60405180910390f35b610493600480360381019061048e9190611e33565b611727565b6040516104a0919061224c565b60405180910390f35b60006104b48261099b565b6104bd83610b75565b6104c7919061237f565b9050919050565b6060600380546104dd9061243b565b80601f01602080910402602001604051908101604052809291908181526020018280546105099061243b565b80156105565780601f1061052b57610100808354040283529160200191610556565b820191906000526020600020905b81548152906001019060200180831161053957829003601f168201915b5050505050905090565b600061057461056d6117ae565b84846117b6565b6001905092915050565b6000600254905090565b60066020528060005260406000206000915090505481565b60006105ad848484611981565b6000600160008673ffffffffffffffffffffffffffffffffffffffff1673ffffffffffffffffffffffffffffffffffffffff16815260200190815260200160002060006105f86117ae565b73ffffffffffffffffffffffffffffffffffffffff1673ffffffffffffffffffffffffffffffffffffffff16815260200190815260200160002054905082811015610678576040517f08c379a000000000000000000000000000000000000000000000000000000000815260040161066f906121cc565b60405180910390fd5b610695856106846117ae565b8584610690919061237f565b6117b6565b60019150509392505050565b60006012905090565b600061074c6106b76117ae565b8484600160006106c56117ae565b73ffffffffffffffffffffffffffffffffffffffff1673ffffffffffffffffffffffffffffffffffffffff16815260200190815260200160002060008873ffffffffffffffffffffffffffffffffffffffff1673ffffffffffffffffffffffffffffffffffffffff16815260200190815260200160002054610747919061229e565b6117b6565b6001905092915050565b60006107613361099b565b116040518060600160405280602b815260200161286b602b9139906107bc576040517f08c379a00000000000000000000000000000000000000000000000000000000081526004016107b3919061214a565b60405180910390fd5b506000811180156108175750600081600760003373ffffffffffffffffffffffffffffffffffffffff1673ffffffffffffffffffffffffffffffffffffffff16815260200190815260200160002054610815919061237f565b115b6040518060600160405280602c8152602001612896602c913990610871576040517f08c379a0000000000000000000000000000000000000000000000000000000008152600401610868919061214a565b60405180910390fd5b5061087b3361099b565b600860003373ffffffffffffffffffffffffffffffffffffffff1673ffffffffffffffffffffffffffffffffffffffff1681526020019081526020016000208190555042600560003373ffffffffffffffffffffffffffffffffffffffff1673ffffffffffffffffffffffffffffffffffffffff1681526020019081526020016000208190555080600760003373ffffffffffffffffffffffffffffffffffffffff1673ffffffffffffffffffffffffffffffffffffffff1681526020019081526020016000205461094d919061237f565b600760003373ffffffffffffffffffffffffffffffffffffffff1673ffffffffffffffffffffffffffffffffffffffff16815260200190815260200160002081905550610998611c00565b50565b600080600860008473ffffffffffffffffffffffffffffffffffffffff1673ffffffffffffffffffffffffffffffffffffffff1681526020019081526020016000205414156109ed5760009050610b70565b6000600660008473ffffffffffffffffffffffffffffffffffffffff1673ffffffffffffffffffffffffffffffffffffffff16815260200190815260200160002054600560008573ffffffffffffffffffffffffffffffffffffffff1673ffffffffffffffffffffffffffffffffffffffff1681526020019081526020016000205442610a7a919061237f565b600760008673ffffffffffffffffffffffffffffffffffffffff1673ffffffffffffffffffffffffffffffffffffffff16815260200190815260200160002054610ac49190612325565b610ace91906122f4565b905080600860008573ffffffffffffffffffffffffffffffffffffffff1673ffffffffffffffffffffffffffffffffffffffff168152602001908152602001600020541015610b21576000915050610b70565b80600860008573ffffffffffffffffffffffffffffffffffffffff1673ffffffffffffffffffffffffffffffffffffffff16815260200190815260200160002054610b6c919061237f565b9150505b919050565b60008060008373ffffffffffffffffffffffffffffffffffffffff1673ffffffffffffffffffffffffffffffffffffffff168152602001908152602001600020549050919050565b60076020528060005260406000206000915090505481565b600081116040518060600160405280602c81526020016127b5602c913990610c33576040517f08c379a0000000000000000000000000000000000000000000000000000000008152600401610c2a919061214a565b60405180910390fd5b506000610c3f3361099b565b116040518060600160405280602b815260200161286b602b913990610c9a576040517f08c379a0000000000000000000000000000000000000000000000000000000008152600401610c91919061214a565b60405180910390fd5b50610ca43361099b565b600860003373ffffffffffffffffffffffffffffffffffffffff1673ffffffffffffffffffffffffffffffffffffffff1681526020019081526020016000208190555042600560003373ffffffffffffffffffffffffffffffffffffffff1673ffffffffffffffffffffffffffffffffffffffff16815260200190815260200160002081905550600660003373ffffffffffffffffffffffffffffffffffffffff1673ffffffffffffffffffffffffffffffffffffffff1681526020019081526020016000205481610d76919061229e565b600660003373ffffffffffffffffffffffffffffffffffffffff1673ffffffffffffffffffffffffffffffffffffffff16815260200190815260200160002081905550610dc1611c00565b50565b6000610dcf3361099b565b146040518060400160405280601981526020017f546f6b656e206c6f636b20616c7265616479206578697374730000000000000081525090610e47576040517f08c379a0000000000000000000000000000000000000000000000000000000008152600401610e3e919061214a565b60405180910390fd5b5082610e5233610b75565b10156040518060400160405280601981526020017f4e6f7420656e6f75676820746f6b656e7320746f206c6f636b0000000000000081525090610ecb576040517f08c379a0000000000000000000000000000000000000000000000000000000008152600401610ec2919061214a565b60405180910390fd5b50600082116040518060600160405280602981526020016127636029913990610f2a576040517f08c379a0000000000000000000000000000000000000000000000000000000008152600401610f21919061214a565b60405180910390fd5b50828111158015610f3b5750600081115b60405180606001604052806035815260200161280f6035913990610f95576040517f08c379a0000000000000000000000000000000000000000000000000000000008152600401610f8c919061214a565b60405180910390fd5b5042600560003373ffffffffffffffffffffffffffffffffffffffff1673ffffffffffffffffffffffffffffffffffffffff1681526020019081526020016000208190555081600660003373ffffffffffffffffffffffffffffffffffffffff1673ffffffffffffffffffffffffffffffffffffffff1681526020019081526020016000208190555080600760003373ffffffffffffffffffffffffffffffffffffffff1673ffffffffffffffffffffffffffffffffffffffff1681526020019081526020016000208190555082600860003373ffffffffffffffffffffffffffffffffffffffff1673ffffffffffffffffffffffffffffffffffffffff168152602001908152602001600020819055507f14dd38da30c9da84bbafc0a82aca4fe12d2802342bdff3aee7cba29b3dace69c33600860003373ffffffffffffffffffffffffffffffffffffffff1673ffffffffffffffffffffffffffffffffffffffff16815260200190815260200160002054600560003373ffffffffffffffffffffffffffffffffffffffff1673ffffffffffffffffffffffffffffffffffffffff16815260200190815260200160002054600660003373ffffffffffffffffffffffffffffffffffffffff1673ffffffffffffffffffffffffffffffffffffffff16815260200190815260200160002054600760003373ffffffffffffffffffffffffffffffffffffffff1673ffffffffffffffffffffffffffffffffffffffff168152602001908152602001600020546040516111d99594939291906120dc565b60405180910390a1505050565b6060600480546111f59061243b565b80601f01602080910402602001604051908101604052809291908181526020018280546112219061243b565b801561126e5780601f106112435761010080835404028352916020019161126e565b820191906000526020600020905b81548152906001019060200180831161125157829003601f168201915b5050505050905090565b600080600160006112876117ae565b73ffffffffffffffffffffffffffffffffffffffff1673ffffffffffffffffffffffffffffffffffffffff16815260200190815260200160002060008573ffffffffffffffffffffffffffffffffffffffff1673ffffffffffffffffffffffffffffffffffffffff16815260200190815260200160002054905082811015611344576040517f08c379a000000000000000000000000000000000000000000000000000000000815260040161133b9061222c565b60405180910390fd5b61136161134f6117ae565b85858461135c919061237f565b6117b6565b600191505092915050565b60056020528060005260406000206000915090505481565b60006113986113916117ae565b8484611981565b6001905092915050565b60006113ad3361099b565b1460405180606001604052806029815260200161278c6029913990611408576040517f08c379a00000000000000000000000000000000000000000000000000000000081526004016113ff919061214a565b60405180910390fd5b506000600560003373ffffffffffffffffffffffffffffffffffffffff1673ffffffffffffffffffffffffffffffffffffffff168152602001908152602001600020819055506000600660003373ffffffffffffffffffffffffffffffffffffffff1673ffffffffffffffffffffffffffffffffffffffff168152602001908152602001600020819055506000600760003373ffffffffffffffffffffffffffffffffffffffff1673ffffffffffffffffffffffffffffffffffffffff168152602001908152602001600020819055506000600860003373ffffffffffffffffffffffffffffffffffffffff1673ffffffffffffffffffffffffffffffffffffffff16815260200190815260200160002081905550565b600081116040518060600160405280602e81526020016127e1602e91399061157d576040517f08c379a0000000000000000000000000000000000000000000000000000000008152600401611574919061214a565b60405180910390fd5b5060006115893361099b565b116040518060600160405280602b815260200161286b602b9139906115e4576040517f08c379a00000000000000000000000000000000000000000000000000000000081526004016115db919061214a565b60405180910390fd5b506115ee336104a9565b8111156040518060400160405280601981526020017f4e6f7420656e6f75676820746f6b656e7320746f206c6f636b0000000000000081525090611668576040517f08c379a000000000000000000000000000000000000000000000000000000000815260040161165f919061214a565b60405180910390fd5b506116723361099b565b8161167d919061229e565b600860003373ffffffffffffffffffffffffffffffffffffffff1673ffffffffffffffffffffffffffffffffffffffff1681526020019081526020016000208190555042600560003373ffffffffffffffffffffffffffffffffffffffff1673ffffffffffffffffffffffffffffffffffffffff1681526020019081526020016000208190555061170c611c00565b50565b60086020528060005260406000206000915090505481565b6000600160008473ffffffffffffffffffffffffffffffffffffffff1673ffffffffffffffffffffffffffffffffffffffff16815260200190815260200160002060008373ffffffffffffffffffffffffffffffffffffffff1673ffffffffffffffffffffffffffffffffffffffff16815260200190815260200160002054905092915050565b600033905090565b600073ffffffffffffffffffffffffffffffffffffffff168373ffffffffffffffffffffffffffffffffffffffff161415611826576040517f08c379a000000000000000000000000000000000000000000000000000000000815260040161181d9061220c565b60405180910390fd5b600073ffffffffffffffffffffffffffffffffffffffff168273ffffffffffffffffffffffffffffffffffffffff161415611896576040517f08c379a000000000000000000000000000000000000000000000000000000000815260040161188d9061218c565b60405180910390fd5b80600160008573ffffffffffffffffffffffffffffffffffffffff1673ffffffffffffffffffffffffffffffffffffffff16815260200190815260200160002060008473ffffffffffffffffffffffffffffffffffffffff1673ffffffffffffffffffffffffffffffffffffffff168152602001908152602001600020819055508173ffffffffffffffffffffffffffffffffffffffff168373ffffffffffffffffffffffffffffffffffffffff167f8c5be1e5ebec7d5bd14f71427d1e84f3dd0314c0f7b2291e5b200ac8c7c3b92583604051611974919061224c565b60405180910390a3505050565b600073ffffffffffffffffffffffffffffffffffffffff168373ffffffffffffffffffffffffffffffffffffffff1614156119f1576040517f08c379a00000000000000000000000000000000000000000000000000000000081526004016119e8906121ec565b60405180910390fd5b600073ffffffffffffffffffffffffffffffffffffffff168273ffffffffffffffffffffffffffffffffffffffff161415611a61576040517f08c379a0000000000000000000000000000000000000000000000000000000008152600401611a589061216c565b60405180910390fd5b611a6c838383611d3d565b60008060008573ffffffffffffffffffffffffffffffffffffffff1673ffffffffffffffffffffffffffffffffffffffff16815260200190815260200160002054905081811015611af2576040517f08c379a0000000000000000000000000000000000000000000000000000000008152600401611ae9906121ac565b60405180910390fd5b8181611afe919061237f565b6000808673ffffffffffffffffffffffffffffffffffffffff1673ffffffffffffffffffffffffffffffffffffffff16815260200190815260200160002081905550816000808573ffffffffffffffffffffffffffffffffffffffff1673ffffffffffffffffffffffffffffffffffffffff1681526020019081526020016000206000828254611b8e919061229e565b925050819055508273ffffffffffffffffffffffffffffffffffffffff168473ffffffffffffffffffffffffffffffffffffffff167fddf252ad1be2c89b69c2b068fc378daa952ba7f163c4a11628f55a4df523b3ef84604051611bf2919061224c565b60405180910390a350505050565b7f42d399c266c2ecae943ad13b8b7667b66a9a94a929b64832b6fa27f5c61002a433600860003373ffffffffffffffffffffffffffffffffffffffff1673ffffffffffffffffffffffffffffffffffffffff16815260200190815260200160002054600560003373ffffffffffffffffffffffffffffffffffffffff1673ffffffffffffffffffffffffffffffffffffffff16815260200190815260200160002054600660003373ffffffffffffffffffffffffffffffffffffffff1673ffffffffffffffffffffffffffffffffffffffff16815260200190815260200160002054600760003373ffffffffffffffffffffffffffffffffffffffff1673ffffffffffffffffffffffffffffffffffffffff16815260200190815260200160002054604051611d339594939291906120dc565b60405180910390a1565b600073ffffffffffffffffffffffffffffffffffffffff168373ffffffffffffffffffffffffffffffffffffffff161480611d805750611d7c836104a9565b8111155b6040518060600160405280602781526020016128446027913990611dda576040517f08c379a0000000000000000000000000000000000000000000000000000000008152600401611dd1919061214a565b60405180910390fd5b50505050565b600081359050611def81612734565b92915050565b600081359050611e048161274b565b92915050565b600060208284031215611e1c57600080fd5b6000611e2a84828501611de0565b91505092915050565b60008060408385031215611e4657600080fd5b6000611e5485828601611de0565b9250506020611e6585828601611de0565b9150509250929050565b600080600060608486031215611e8457600080fd5b6000611e9286828701611de0565b9350506020611ea386828701611de0565b9250506040611eb486828701611df5565b9150509250925092565b60008060408385031215611ed157600080fd5b6000611edf85828601611de0565b9250506020611ef085828601611df5565b9150509250929050565b600060208284031215611f0c57600080fd5b6000611f1a84828501611df5565b91505092915050565b600080600060608486031215611f3857600080fd5b6000611f4686828701611df5565b9350506020611f5786828701611df5565b9250506040611f6886828701611df5565b9150509250925092565b611f7b816123b3565b82525050565b611f8a816123c5565b82525050565b6000611f9b82612282565b611fa5818561228d565b9350611fb5818560208601612408565b611fbe816124fa565b840191505092915050565b6000611fd660238361228d565b9150611fe18261250b565b604082019050919050565b6000611ff960228361228d565b91506120048261255a565b604082019050919050565b600061201c60268361228d565b9150612027826125a9565b604082019050919050565b600061203f60288361228d565b915061204a826125f8565b604082019050919050565b600061206260258361228d565b915061206d82612647565b604082019050919050565b600061208560248361228d565b915061209082612696565b604082019050919050565b60006120a860258361228d565b91506120b3826126e5565b604082019050919050565b6120c7816123f1565b82525050565b6120d6816123fb565b82525050565b600060a0820190506120f16000830188611f72565b6120fe60208301876120be565b61210b60408301866120be565b61211860608301856120be565b61212560808301846120be565b9695505050505050565b60006020820190506121446000830184611f81565b92915050565b600060208201905081810360008301526121648184611f90565b905092915050565b6000602082019050818103600083015261218581611fc9565b9050919050565b600060208201905081810360008301526121a581611fec565b9050919050565b600060208201905081810360008301526121c58161200f565b9050919050565b600060208201905081810360008301526121e581612032565b9050919050565b6000602082019050818103600083015261220581612055565b9050919050565b6000602082019050818103600083015261222581612078565b9050919050565b600060208201905081810360008301526122458161209b565b9050919050565b600060208201905061226160008301846120be565b92915050565b600060208201905061227c60008301846120cd565b92915050565b600081519050919050565b600082825260208201905092915050565b60006122a9826123f1565b91506122b4836123f1565b9250827fffffffffffffffffffffffffffffffffffffffffffffffffffffffffffffffff038211156122e9576122e861246d565b5b828201905092915050565b60006122ff826123f1565b915061230a836123f1565b92508261231a5761231961249c565b5b828204905092915050565b6000612330826123f1565b915061233b836123f1565b9250817fffffffffffffffffffffffffffffffffffffffffffffffffffffffffffffffff04831182151516156123745761237361246d565b5b828202905092915050565b600061238a826123f1565b9150612395836123f1565b9250828210156123a8576123a761246d565b5b828203905092915050565b60006123be826123d1565b9050919050565b60008115159050919050565b600073ffffffffffffffffffffffffffffffffffffffff82169050919050565b6000819050919050565b600060ff82169050919050565b60005b8381101561242657808201518184015260208101905061240b565b83811115612435576000848401525b50505050565b6000600282049050600182168061245357607f821691505b60208210811415612467576124666124cb565b5b50919050565b7f4e487b7100000000000000000000000000000000000000000000000000000000600052601160045260246000fd5b7f4e487b7100000000000000000000000000000000000000000000000000000000600052601260045260246000fd5b7f4e487b7100000000000000000000000000000000000000000000000000000000600052602260045260246000fd5b6000601f19601f8301169050919050565b7f45524332303a207472616e7366657220746f20746865207a65726f206164647260008201527f6573730000000000000000000000000000000000000000000000000000000000602082015250565b7f45524332303a20617070726f766520746f20746865207a65726f20616464726560008201527f7373000000000000000000000000000000000000000000000000000000000000602082015250565b7f45524332303a207472616e7366657220616d6f756e742065786365656473206260008201527f616c616e63650000000000000000000000000000000000000000000000000000602082015250565b7f45524332303a207472616e7366657220616d6f756e742065786365656473206160008201527f6c6c6f77616e6365000000000000000000000000000000000000000000000000602082015250565b7f45524332303a207472616e736665722066726f6d20746865207a65726f20616460008201527f6472657373000000000000000000000000000000000000000000000000000000602082015250565b7f45524332303a20617070726f76652066726f6d20746865207a65726f2061646460008201527f7265737300000000000000000000000000000000000000000000000000000000602082015250565b7f45524332303a2064656372656173656420616c6c6f77616e63652062656c6f7760008201527f207a65726f000000000000000000000000000000000000000000000000000000602082015250565b61273d816123b3565b811461274857600080fd5b50565b612754816123f1565b811461275f57600080fd5b5056fe556e6c6f636b20696e74657276616c206d7573742062652067726561746572207468616e207a65726f43616e6e6f7420636c656172206c6f636b207768696c6520746f6b656e7320617265206c6f636b65644e657720756e6c6f636b2074696d65206d7573742062652067726561746572207468616e2063757272656e744e657720616d6f756e74206c6f636b6564206d7573742062652067726561746572207468616e2063757272656e74556e6c6f636b20616d6f756e74206d757374206265206265747765656e203120616e6420746865206c6f636b656420616d6f756e744e6f7420656e6f75676820756e6c6f636b656420746f6b656e7320666f72207472616e736665724e6f20746f6b656e7320617265206c6f636b65642c20637265617465206e6577206c6f636b2066697273744e657720756e6c6f636b20616d6f756e74206d757374206265206c6f776572207468616e2063757272656e74a26469706673582212208742d801257ab9c75e9ac56609b02d209288441e56bc6a8371bdd5dde1fa21b764736f6c634300080400334e6f7420656e6f75676820756e6c6f636b656420746f6b656e7320666f72207472616e73666572",
  "immutableReferences": {},
  "source": "// References:\n//https://github.com/OpenZeppelin/openzeppelin-contracts/blob/master/contracts/token/ERC20/ERC20.sol\n//https://github.com/OpenZeppelin/openzeppelin-contracts/blob/master/contracts/utils/math/SafeMath.sol\n\n/**\nCopyright 2021 Open DeFi DAO\n\n\nPermission is hereby granted, free of charge, to any person obtaining a copy of this software and associated documentation files (the \"Software\"), to deal in the Software without restriction, including without limitation the rights to use, copy, modify, merge, publish, distribute, sublicense, and/or sell copies of the Software, and to permit persons to whom the Software is furnished to do so, subject to the following conditions:\n\nThe above copyright notice and this permission notice shall be included in all copies or substantial portions of the Software.\n\nTHE SOFTWARE IS PROVIDED \"AS IS\", WITHOUT WARRANTY OF ANY KIND, EXPRESS OR IMPLIED, INCLUDING BUT NOT LIMITED TO THE WARRANTIES OF MERCHANTABILITY, FITNESS FOR A PARTICULAR PURPOSE AND NONINFRINGEMENT. IN NO EVENT SHALL THE AUTHORS OR COPYRIGHT HOLDERS BE LIABLE FOR ANY CLAIM, DAMAGES OR OTHER LIABILITY, WHETHER IN AN ACTION OF CONTRACT, TORT OR OTHERWISE, ARISING FROM, OUT OF OR IN CONNECTION WITH THE SOFTWARE OR THE USE OR OTHER DEALINGS IN THE SOFTWARE.\n * */\n \npragma solidity ^0.8.4;\n\n/**\n* @dev Inteface for the token lock features in this contract\n*/\ninterface ITOKENLOCK {\n    /**\n     * @dev Emitted when the token lock is initialized  \n     * `tokenHolder` is the address the lock pertains to\n     *  `amountLocked` is the amount of tokens locked \n     *  `time` is the (initial) time at which tokens were locked\n     *  `unlockPeriod` is the time interval at which tokens become unlockedPerPeriod\n     *  `unlockedPerPeriod` is the amount of token unlocked earch unlockPeriod\n     */\n    event  NewTokenLock(address tokenHolder, uint256 amountLocked, uint256 time, uint256 unlockPeriod, uint256 unlockedPerPeriod);\n    /**\n     * @dev Emitted when the token lock is updated  to be more strict\n     * `tokenHolder` is the address the lock pertains to\n     *  `amountLocked` is the amount of tokens locked \n     *  `time` is the (initial) time at which tokens were locked\n     *  `unlockPeriod` is the time interval at which tokens become unlockedPerPeriod\n     *  `unlockedPerPeriod` is the amount of token unlocked earch unlockPeriod\n     */\n    event  UpdateTokenLock(address tokenHolder, uint256 amountLocked, uint256 time, uint256 unlockPeriod, uint256 unlockedPerPeriod);\n    \n    /**\n     * @dev Lock `baseTokensLocked_` held by the caller with `unlockedPerEpoch_` tokens unlocking each `unlockEpoch_`\n     *\n     *\n     * Emits an {NewTokenLock} event indicating the updated terms of the token lockup.\n     *\n     * Requires msg.sender to:\n     *\n     * - Must not be a prevoius lock for this address. If so, it must be first cleared with a call to {clearLock}.\n     * - Must have at least a balance of `baseTokensLocked_` to lock\n     * - Must provide non-zero `unlockEpoch_`\n     * - Must have at least `unlockedPerEpoch_` tokens to unlock \n     *  - `unlockedPerEpoch_` must be greater than zero\n     */\n    \n    function newTokenLock(uint256 baseTokensLocked_, uint256 unlockEpoch_, uint256 unlockedPerEpoch_) external;\n    \n    /**\n     * @dev Reset the lock state\n     *\n     * Requirements:\n     *\n     * - msg.sender must not have any tokens locked, currently\n     */\n    function clearLock() external;\n    \n    /**\n     * @dev Returns the amount of tokens that are unlocked i.e. transferrable by `who`\n     *\n     */\n    function balanceUnlocked(address who) external view returns (uint256 amount);\n    /**\n     * @dev Returns the amount of tokens that are locked and not transferrable by `who`\n     *\n     */\n    function balanceLocked(address who) external view returns (uint256 amount);\n\n    /**\n     * @dev Reduce the amount of token unlocked each period by `subtractedValue`\n     * \n     * Emits an {UpdateTokenLock} event indicating the updated terms of the token lockup.\n     * \n     * Requires: \n     *  - msg.sender must have tokens currently locked\n     *  - `subtractedValue` is greater than 0\n     *  - cannot reduce the unlockedPerEpoch to 0\n     *\n     *  NOTE: As a side effect resets the baseTokensLocked and lockTime for msg.sender \n     */\n    function decreaseUnlockAmount(uint256 subtractedValue) external;\n    /**\n     * @dev Increase the duration of the period at which tokens are unlocked by `addedValue`\n     * this will have the net effect of slowing the rate at which tokens are unlocked\n     * \n     * Emits an {UpdateTokenLock} event indicating the updated terms of the token lockup.\n     * \n     * Requires: \n     *  - msg.sender must have tokens currently locked\n     *  - `addedValue` is greater than 0\n     * \n     *  NOTE: As a side effect resets the baseTokensLocked and lockTime for msg.sender \n     */\n    function increaseUnlockTime(uint256 addedValue) external;\n    /**\n     * @dev Increase the number of tokens locked by `addedValue`\n     * i.e. locks up more tokens.\n     * \n     *      \n     * Emits an {UpdateTokenLock} event indicating the updated terms of the token lockup.\n     * \n     * Requires: \n     *  - msg.sender must have tokens currently locked\n     *  - `addedValue` is greater than zero\n     *  - msg.sender must have sufficient unlocked tokens to lock\n     * \n     *  NOTE: As a side effect resets the baseTokensLocked and lockTime for msg.sender \n     *\n     */\n    function increaseTokensLocked(uint256 addedValue) external;\n\n}\n/**\n * @dev Interface of the ERC20 standard as defined in the EIP.\n */\ninterface IERC20 {\n    /**\n     * @dev Returns the amount of tokens in existence.\n     */\n    function totalSupply() external view returns (uint256);\n\n    /**\n     * @dev Returns the amount of tokens owned by `account`.\n     */\n    function balanceOf(address account) external view returns (uint256);\n\n    /**\n     * @dev Moves `amount` tokens from the caller's account to `recipient`.\n     *\n     * Returns a boolean value indicating whether the operation succeeded.\n     *\n     * Emits a {Transfer} event.\n     */\n    function transfer(address recipient, uint256 amount) external returns (bool);\n\n    /**\n     * @dev Returns the remaining number of tokens that `spender` will be\n     * allowed to spend on behalf of `owner` through {transferFrom}. This is\n     * zero by default.\n     *\n     * This value changes when {approve} or {transferFrom} are called.\n     */\n    function allowance(address owner, address spender) external view returns (uint256);\n\n    /**\n     * @dev Sets `amount` as the allowance of `spender` over the caller's tokens.\n     *\n     * Returns a boolean value indicating whether the operation succeeded.\n     *\n     * IMPORTANT: Beware that changing an allowance with this method brings the risk\n     * that someone may use both the old and the new allowance by unfortunate\n     * transaction ordering. One possible solution to mitigate this race\n     * condition is to first reduce the spender's allowance to 0 and set the\n     * desired value afterwards:\n     * https://github.com/ethereum/EIPs/issues/20#issuecomment-263524729\n     *\n     * Emits an {Approval} event.\n     */\n    function approve(address spender, uint256 amount) external returns (bool);\n\n    /**\n     * @dev Moves `amount` tokens from `sender` to `recipient` using the\n     * allowance mechanism. `amount` is then deducted from the caller's\n     * allowance.\n     *\n     * Returns a boolean value indicating whether the operation succeeded.\n     *\n     * Emits a {Transfer} event.\n     */\n    function transferFrom(address sender, address recipient, uint256 amount) external returns (bool);\n\n    /**\n     * @dev Emitted when `value` tokens are moved from one account (`from`) to\n     * another (`to`).\n     *\n     * Note that `value` may be zero.\n     */\n    event Transfer(address indexed from, address indexed to, uint256 value);\n\n    /**\n     * @dev Emitted when the allowance of a `spender` for an `owner` is set by\n     * a call to {approve}. `value` is the new allowance.\n     */\n    event Approval(address indexed owner, address indexed spender, uint256 value);\n}\n\n/**\n * @dev Interface for the optional metadata functions from the ERC20 standard.\n *\n * _Available since v4.1._\n */\ninterface IERC20Metadata is IERC20 {\n    /**\n     * @dev Returns the name of the token.\n     */\n    function name() external view returns (string memory);\n\n    /**\n     * @dev Returns the symbol of the token.\n     */\n    function symbol() external view returns (string memory);\n\n    /**\n     * @dev Returns the decimals places of the token.\n     */\n    function decimals() external view returns (uint8);\n}\n\n/*\n * @dev Provides information about the current execution context, including the\n * sender of the transaction and its data. While these are generally available\n * via msg.sender and msg.data, they should not be accessed in such a direct\n * manner, since when dealing with meta-transactions the account sending and\n * paying for execution may not be the actual sender (as far as an application\n * is concerned).\n *\n * This contract is only required for intermediate, library-like contracts.\n */\nabstract contract Context {\n    function _msgSender() internal view virtual returns (address) {\n        return msg.sender;\n    }\n\n}\n\n/**\n * @dev Implementation of the {IERC20} interface.\n *\n * This implementation is agnostic to the way tokens are created. This means\n * that a supply mechanism has to be added in a derived contract using {_mint}.\n * For a generic mechanism see {ERC20PresetMinterPauser}.\n *\n * TIP: For a detailed writeup see our guide\n * https://forum.zeppelin.solutions/t/how-to-implement-erc20-supply-mechanisms/226[How\n * to implement supply mechanisms].\n *\n * We have followed general OpenZeppelin guidelines: functions revert instead\n * of returning `false` on failure. This behavior is nonetheless conventional\n * and does not conflict with the expectations of ERC20 applications.\n *\n * Additionally, an {Approval} event is emitted on calls to {transferFrom}.\n * This allows applications to reconstruct the allowance for all accounts just\n * by listening to said events. Other implementations of the EIP may not emit\n * these events, as it isn't required by the specification.\n *\n * Finally, the non-standard {decreaseAllowance} and {increaseAllowance}\n * functions have been added to mitigate the well-known issues around setting\n * allowances. See {IERC20-approve}.\n */\ncontract ERC20 is Context, IERC20, IERC20Metadata {\n    mapping (address => uint256) private _balances;\n\n    mapping (address => mapping (address => uint256)) private _allowances;\n\n    uint256 private _totalSupply;\n\n    string private _name;\n    string private _symbol;\n\n    /**\n     * @dev Sets the values for {name} and {symbol}.\n     *\n     * The defaut value of {decimals} is 18. To select a different value for\n     * {decimals} you should overload it.\n     *\n     * All two of these values are immutable: they can only be set once during\n     * construction.\n     */\n    constructor (string memory name_, string memory symbol_) {\n        _name = name_;\n        _symbol = symbol_;\n    }\n\n    /**\n     * @dev Returns the name of the token.\n     */\n    function name() public view virtual override returns (string memory) {\n        return _name;\n    }\n\n    /**\n     * @dev Returns the symbol of the token, usually a shorter version of the\n     * name.\n     */\n    function symbol() public view virtual override returns (string memory) {\n        return _symbol;\n    }\n\n    /**\n     * @dev Returns the number of decimals used to get its user representation.\n     * For example, if `decimals` equals `2`, a balance of `505` tokens should\n     * be displayed to a user as `5,05` (`505 / 10 ** 2`).\n     *\n     * Tokens usually opt for a value of 18, imitating the relationship between\n     * Ether and Wei. This is the value {ERC20} uses, unless this function is\n     * overridden;\n     *\n     * NOTE: This information is only used for _display_ purposes: it in\n     * no way affects any of the arithmetic of the contract, including\n     * {IERC20-balanceOf} and {IERC20-transfer}.\n     */\n    function decimals() public view virtual override returns (uint8) {\n        return 18;\n    }\n\n    /**\n     * @dev See {IERC20-totalSupply}.\n     */\n    function totalSupply() public view virtual override returns (uint256) {\n        return _totalSupply;\n    }\n\n    /**\n     * @dev See {IERC20-balanceOf}.\n     */\n    function balanceOf(address account) public view virtual override returns (uint256) {\n        return _balances[account];\n    }\n\n    /**\n     * @dev See {IERC20-transfer}.\n     *\n     * Requirements:\n     *\n     * - `recipient` cannot be the zero address.\n     * - the caller must have a balance of at least `amount`.\n     */\n    function transfer(address recipient, uint256 amount) public virtual override returns (bool) {\n        _transfer(_msgSender(), recipient, amount);\n        return true;\n    }\n\n    /**\n     * @dev See {IERC20-allowance}.\n     */\n    function allowance(address owner, address spender) public view virtual override returns (uint256) {\n        return _allowances[owner][spender];\n    }\n\n    /**\n     * @dev See {IERC20-approve}.\n     *\n     * Requirements:\n     *\n     * - `spender` cannot be the zero address.\n     */\n    function approve(address spender, uint256 amount) public virtual override returns (bool) {\n        _approve(_msgSender(), spender, amount);\n        return true;\n    }\n\n    /**\n     * @dev See {IERC20-transferFrom}.\n     *\n     * Emits an {Approval} event indicating the updated allowance. This is not\n     * required by the EIP. See the note at the beginning of {ERC20}.\n     *\n     * Requirements:\n     *\n     * - `sender` and `recipient` cannot be the zero address.\n     * - `sender` must have a balance of at least `amount`.\n     * - the caller must have allowance for ``sender``'s tokens of at least\n     * `amount`.\n     */\n    function transferFrom(address sender, address recipient, uint256 amount) public virtual override returns (bool) {\n        _transfer(sender, recipient, amount);\n\n        uint256 currentAllowance = _allowances[sender][_msgSender()];\n        require(currentAllowance >= amount, \"ERC20: transfer amount exceeds allowance\");\n        _approve(sender, _msgSender(), currentAllowance - amount);\n\n        return true;\n    }\n\n    /**\n     * @dev Atomically increases the allowance granted to `spender` by the caller.\n     *\n     * This is an alternative to {approve} that can be used as a mitigation for\n     * problems described in {IERC20-approve}.\n     *\n     * Emits an {Approval} event indicating the updated allowance.\n     *\n     * Requirements:\n     *\n     * - `spender` cannot be the zero address.\n     */\n    function increaseAllowance(address spender, uint256 addedValue) public virtual returns (bool) {\n        _approve(_msgSender(), spender, _allowances[_msgSender()][spender] + addedValue);\n        return true;\n    }\n\n    /**\n     * @dev Atomically decreases the allowance granted to `spender` by the caller.\n     *\n     * This is an alternative to {approve} that can be used as a mitigation for\n     * problems described in {IERC20-approve}.\n     *\n     * Emits an {Approval} event indicating the updated allowance.\n     *\n     * Requirements:\n     *\n     * - `spender` cannot be the zero address.\n     * - `spender` must have allowance for the caller of at least\n     * `subtractedValue`.\n     */\n    function decreaseAllowance(address spender, uint256 subtractedValue) public virtual returns (bool) {\n        uint256 currentAllowance = _allowances[_msgSender()][spender];\n        require(currentAllowance >= subtractedValue, \"ERC20: decreased allowance below zero\");\n        _approve(_msgSender(), spender, currentAllowance - subtractedValue);\n\n        return true;\n    }\n\n    /**\n     * @dev Moves tokens `amount` from `sender` to `recipient`.\n     *\n     * This is internal function is equivalent to {transfer}, and can be used to\n     * e.g. implement automatic token fees, slashing mechanisms, etc.\n     *\n     * Emits a {Transfer} event.\n     *\n     * Requirements:\n     *\n     * - `sender` cannot be the zero address.\n     * - `recipient` cannot be the zero address.\n     * - `sender` must have a balance of at least `amount`.\n     */\n    function _transfer(address sender, address recipient, uint256 amount) internal virtual {\n        require(sender != address(0), \"ERC20: transfer from the zero address\");\n        require(recipient != address(0), \"ERC20: transfer to the zero address\");\n\n        _beforeTokenTransfer(sender, recipient, amount);\n\n        uint256 senderBalance = _balances[sender];\n        require(senderBalance >= amount, \"ERC20: transfer amount exceeds balance\");\n        _balances[sender] = senderBalance - amount;\n        _balances[recipient] += amount;\n\n        emit Transfer(sender, recipient, amount);\n    }\n\n    /** @dev Creates `amount` tokens and assigns them to `account`, increasing\n     * the total supply.\n     *\n     * Emits a {Transfer} event with `from` set to the zero address.\n     *\n     * Requirements:\n     *\n     * - `to` cannot be the zero address.\n     */\n    function _mint(address account, uint256 amount) internal virtual {\n        require(account != address(0), \"ERC20: mint to the zero address\");\n\n        _beforeTokenTransfer(address(0), account, amount);\n\n        _totalSupply += amount;\n        _balances[account] += amount;\n        emit Transfer(address(0), account, amount);\n    }\n\n\n    /**\n     * @dev Sets `amount` as the allowance of `spender` over the `owner` s tokens.\n     *\n     * This internal function is equivalent to `approve`, and can be used to\n     * e.g. set automatic allowances for certain subsystems, etc.\n     *\n     * Emits an {Approval} event.\n     *\n     * Requirements:\n     *\n     * - `owner` cannot be the zero address.\n     * - `spender` cannot be the zero address.\n     */\n    function _approve(address owner, address spender, uint256 amount) internal virtual {\n        require(owner != address(0), \"ERC20: approve from the zero address\");\n        require(spender != address(0), \"ERC20: approve to the zero address\");\n\n        _allowances[owner][spender] = amount;\n        emit Approval(owner, spender, amount);\n    }\n\n    /**\n     * @dev Hook that is called before any transfer of tokens. This includes\n     * minting and burning.\n     *\n     * Calling conditions:\n     *\n     * - when `from` and `to` are both non-zero, `amount` of ``from``'s tokens\n     * will be to transferred to `to`.\n     * - when `from` is zero, `amount` tokens will be minted for `to`.\n     * - when `to` is zero, `amount` of ``from``'s tokens will be burned.\n     * - `from` and `to` are never both zero.\n     *\n     * To learn more about hooks, head to xref:ROOT:extending-contracts.adoc#using-hooks[Using Hooks].\n     */\n    function _beforeTokenTransfer(address from, address to, uint256 amount) internal virtual { }\n\n}\n\ncontract OpenDeFiGovernance is ERC20, ITOKENLOCK {\n\n\n    constructor(string memory name_, string memory symbol_, uint256 amount_, address deployer_) ERC20(name_, symbol_){\n        _mint(deployer_, amount_);\n    }\n    \n    string private constant ERROR_INSUFFICIENT_UNLOCKED = \"Not enough unlocked tokens for transfer\";\n    string private constant ERROR_LOCK_EXISTS = \"Token lock already exists\";\n    string private constant ERROR_INSUFFICIENT_TOKENS = \"Not enough tokens to lock\";\n    string private constant ERROR_EPOCH_ZERO = \"Unlock interval must be greater than zero\";\n    string private constant ERROR_BAD_UNLOCK_AMOUNT = \"Unlock amount must be between 1 and the locked amount\";\n    string private constant ERROR_CLEARING_LOCK = \"Cannot clear lock while tokens are locked\";\n    string private constant ERROR_BAD_NEW_UNLOCK_AMT = \"New unlock amount must be lower than current\";\n    string private constant ERROR_BAD_NEW_UNLOCK_TIME = \"New unlock time must be greater than current\";\n    string private constant ERROR_BAD_NEW_LOCKED_AMT = \"New amount locked must be greater than current\";\n    string private constant ERROR_NO_LOCKED_TOKENS = \"No tokens are locked, create new lock first\";\n    \n    \n    mapping (address => uint256) public lockTime; //the time tokens were locked\n    mapping (address => uint256) public unlockEpoch; //the time interval at which tokens unlock\n    mapping (address => uint256) public unlockedPerEpoch; // the number of tokens unlocked per unlockEpoch\n    mapping (address => uint256) public baseTokensLocked; // the number of tokens locked up by HOLDER\n    /**\n     * @dev require that at least `amount` tokens are unlocked before transfer is possible\n     *  also permit if minting tokens (coming from 0x0)\n     *\n    */\n    function _beforeTokenTransfer(address from, address /*to*/, uint256 amount) internal  virtual override {\n            require(from == address(0x0) || amount <= balanceUnlocked(from), ERROR_INSUFFICIENT_UNLOCKED);\n    }\n    \n    /**\n     * @dev Lock `baseTokensLocked_` held by the caller with `unlockedPerEpoch_` tokens unlocking each `unlockEpoch_`\n     *\n     *\n     * Emits an {NewTokenLock} event indicating the updated terms of the token lockup.\n     *\n     * Requires msg.sender to:\n     *\n     * - Must not be a prevoius lock for this address. If so, it must be first cleared with a call to {clearLock}.\n     * - Must have at least a balance of `baseTokensLocked_` to lock\n     * - Must provide non-zero `unlockEpoch_`\n     * - Must have at least `unlockedPerEpoch_` tokens to unlock \n     *  - `unlockedPerEpoch_` must be greater than zero\n     */\n    \n    function newTokenLock(uint256 baseTokensLocked_, uint256 unlockEpoch_, uint256 unlockedPerEpoch_) public virtual override{\n        require(balanceLocked(msg.sender) == 0, ERROR_LOCK_EXISTS);\n        require(balanceOf(msg.sender) >= baseTokensLocked_, ERROR_INSUFFICIENT_TOKENS); \n        require(unlockEpoch_ > 0, ERROR_EPOCH_ZERO);\n        require(unlockedPerEpoch_ <= baseTokensLocked_ &&  unlockedPerEpoch_ > 0, ERROR_BAD_UNLOCK_AMOUNT);\n        lockTime[msg.sender] = block.timestamp;\n        unlockEpoch[msg.sender] = unlockEpoch_;\n        unlockedPerEpoch[msg.sender] = unlockedPerEpoch_;\n        baseTokensLocked[msg.sender] = baseTokensLocked_;\n        emit NewTokenLock(msg.sender, baseTokensLocked[msg.sender], lockTime[msg.sender], unlockEpoch[msg.sender], unlockedPerEpoch[msg.sender]);\n    }\n    \n    /**\n     * @dev Reset the lock state\n     *\n     * Requirements:\n     *\n     * - msg.sender must not have any tokens locked, currently\n     */\n    function clearLock() public virtual override{\n        require(balanceLocked(msg.sender) == 0, ERROR_CLEARING_LOCK);\n        lockTime[msg.sender] = 0;\n        unlockEpoch[msg.sender] = 0;\n        unlockedPerEpoch[msg.sender] = 0;\n        baseTokensLocked[msg.sender] = 0;\n    }\n    \n    /**\n     * @dev Returns the amount of tokens that are unlocked i.e. transferrable by `who`\n     *\n     */\n    function balanceUnlocked(address who) public virtual override view returns (uint256 amount) {\n        \n        return (balanceOf(who)- balanceLocked(who));\n        \n    }\n    /**\n     * @dev Returns the amount of tokens that are locked and not transferrable by `who`\n     *\n     */\n    function balanceLocked(address who) public virtual override view returns (uint256 amount){\n        if(baseTokensLocked[who] == 0){\n            return 0;\n        }\n        uint256 unlockedOverTime = unlockedPerEpoch[who] * (block.timestamp - lockTime[who]) / unlockEpoch[who];\n        if(baseTokensLocked[who] <  unlockedOverTime){\n            return 0;\n        }\n        return baseTokensLocked[who]- unlockedOverTime;\n        \n    }\n\n     /**\n     * @dev Emits the UpdateTokenLock event\n     */\n    function emitUpdateTokenLock() internal {\n        emit UpdateTokenLock(msg.sender, baseTokensLocked[msg.sender], lockTime[msg.sender], unlockEpoch[msg.sender], unlockedPerEpoch[msg.sender]);\n\n    }\n \n\n    /**\n     * @dev Reduce the amount of token unlocked each period by `subtractedValue`\n     * \n     * Emits an {UpdateTokenLock} event indicating the updated terms of the token lockup.\n     * \n     * Requires: \n     *  - msg.sender must have tokens currently locked\n     *  - `subtractedValue` is greater than 0\n     *  - cannot reduce the unlockedPerEpoch to 0\n     *\n     *  NOTE: As a side effect resets the baseTokensLocked and lockTime for msg.sender \n     */\n    function decreaseUnlockAmount(uint256 subtractedValue) public virtual override{\n        require(balanceLocked(msg.sender) > 0, ERROR_NO_LOCKED_TOKENS);\n        require(subtractedValue > 0 && (unlockedPerEpoch[msg.sender]- subtractedValue) > 0, ERROR_BAD_NEW_UNLOCK_AMT);\n\n        baseTokensLocked[msg.sender] = balanceLocked(msg.sender);\n        lockTime[msg.sender] = block.timestamp;\n    \n        unlockedPerEpoch[msg.sender] = (unlockedPerEpoch[msg.sender]- subtractedValue);\n        emitUpdateTokenLock();\n    \n    }\n    /**\n     * @dev Increase the duration of the period at which tokens are unlocked by `addedValue`\n     * this will have the net effect of slowing the rate at which tokens are unlocked\n     * \n     * Emits an {UpdateTokenLock} event indicating the updated terms of the token lockup.\n     * \n     * Requires: \n     *  - msg.sender must have tokens currently locked\n     *  - `addedValue` is greater than 0\n     * \n     *  NOTE: As a side effect resets the baseTokensLocked and lockTime for msg.sender \n     */\n    function increaseUnlockTime(uint256 addedValue) public virtual override{\n        require(addedValue > 0, ERROR_BAD_NEW_UNLOCK_TIME);\n        require(balanceLocked(msg.sender) > 0, ERROR_NO_LOCKED_TOKENS);\n\n        baseTokensLocked[msg.sender] = balanceLocked(msg.sender);\n        lockTime[msg.sender] = block.timestamp;\n    \n        unlockEpoch[msg.sender] = (addedValue+ unlockEpoch[msg.sender]);\n\n        emitUpdateTokenLock();\n    \n    }\n    /**\n     * @dev Increase the number of tokens locked by `addedValue`\n     * i.e. locks up more tokens.\n     * \n     *      \n     * Emits an {UpdateTokenLock} event indicating the updated terms of the token lockup.\n     * \n     * Requires: \n     *  - msg.sender must have tokens currently locked\n     *  - `addedValue` is greater than zero\n     *  - msg.sender must have sufficient unlocked tokens to lock\n     * \n     *  NOTE: As a side effect resets the baseTokensLocked and lockTime for msg.sender \n     *\n     */\n    function increaseTokensLocked(uint256 addedValue) public virtual override{\n        require(addedValue > 0, ERROR_BAD_NEW_LOCKED_AMT);\n        require(balanceLocked(msg.sender) > 0, ERROR_NO_LOCKED_TOKENS);\n        require(addedValue <= balanceUnlocked(msg.sender), ERROR_INSUFFICIENT_TOKENS);\n        baseTokensLocked[msg.sender] = (addedValue+ balanceLocked(msg.sender));\n        lockTime[msg.sender] = block.timestamp;\n        emitUpdateTokenLock();\n    }\n\n}\n\n",
  "sourcePath": "/Users/gares/Documents/OpenDefi/dao_code/governance-token-testing-2/governance-token/contracts/opendefi-governance-token.sol",
  "compiler": {
    "name": "solc",
    "version": "0.8.4+commit.c7e474f2.Emscripten.clang"
  },
  "schemaVersion": "3.4.1",
  "updatedAt": "2021-06-01T15:33:42.734Z",
  "devdoc": {
    "kind": "dev",
    "methods": {
      "allowance(address,address)": {
        "details": "See {IERC20-allowance}."
      },
      "approve(address,uint256)": {
        "details": "See {IERC20-approve}. Requirements: - `spender` cannot be the zero address."
      },
      "balanceLocked(address)": {
        "details": "Returns the amount of tokens that are locked and not transferrable by `who`"
      },
      "balanceOf(address)": {
        "details": "See {IERC20-balanceOf}."
      },
      "balanceUnlocked(address)": {
        "details": "Returns the amount of tokens that are unlocked i.e. transferrable by `who`"
      },
      "clearLock()": {
        "details": "Reset the lock state Requirements: - msg.sender must not have any tokens locked, currently"
      },
      "decimals()": {
        "details": "Returns the number of decimals used to get its user representation. For example, if `decimals` equals `2`, a balance of `505` tokens should be displayed to a user as `5,05` (`505 / 10 ** 2`). Tokens usually opt for a value of 18, imitating the relationship between Ether and Wei. This is the value {ERC20} uses, unless this function is overridden; NOTE: This information is only used for _display_ purposes: it in no way affects any of the arithmetic of the contract, including {IERC20-balanceOf} and {IERC20-transfer}."
      },
      "decreaseAllowance(address,uint256)": {
        "details": "Atomically decreases the allowance granted to `spender` by the caller. This is an alternative to {approve} that can be used as a mitigation for problems described in {IERC20-approve}. Emits an {Approval} event indicating the updated allowance. Requirements: - `spender` cannot be the zero address. - `spender` must have allowance for the caller of at least `subtractedValue`."
      },
      "decreaseUnlockAmount(uint256)": {
        "details": "Reduce the amount of token unlocked each period by `subtractedValue`  Emits an {UpdateTokenLock} event indicating the updated terms of the token lockup.  Requires:   - msg.sender must have tokens currently locked  - `subtractedValue` is greater than 0  - cannot reduce the unlockedPerEpoch to 0  NOTE: As a side effect resets the baseTokensLocked and lockTime for msg.sender "
      },
      "increaseAllowance(address,uint256)": {
        "details": "Atomically increases the allowance granted to `spender` by the caller. This is an alternative to {approve} that can be used as a mitigation for problems described in {IERC20-approve}. Emits an {Approval} event indicating the updated allowance. Requirements: - `spender` cannot be the zero address."
      },
      "increaseTokensLocked(uint256)": {
        "details": "Increase the number of tokens locked by `addedValue` i.e. locks up more tokens.        Emits an {UpdateTokenLock} event indicating the updated terms of the token lockup.  Requires:   - msg.sender must have tokens currently locked  - `addedValue` is greater than zero  - msg.sender must have sufficient unlocked tokens to lock   NOTE: As a side effect resets the baseTokensLocked and lockTime for msg.sender "
      },
      "increaseUnlockTime(uint256)": {
        "details": "Increase the duration of the period at which tokens are unlocked by `addedValue` this will have the net effect of slowing the rate at which tokens are unlocked  Emits an {UpdateTokenLock} event indicating the updated terms of the token lockup.  Requires:   - msg.sender must have tokens currently locked  - `addedValue` is greater than 0   NOTE: As a side effect resets the baseTokensLocked and lockTime for msg.sender "
      },
      "name()": {
        "details": "Returns the name of the token."
      },
      "newTokenLock(uint256,uint256,uint256)": {
        "details": "Lock `baseTokensLocked_` held by the caller with `unlockedPerEpoch_` tokens unlocking each `unlockEpoch_` Emits an {NewTokenLock} event indicating the updated terms of the token lockup. Requires msg.sender to: - Must not be a prevoius lock for this address. If so, it must be first cleared with a call to {clearLock}. - Must have at least a balance of `baseTokensLocked_` to lock - Must provide non-zero `unlockEpoch_` - Must have at least `unlockedPerEpoch_` tokens to unlock   - `unlockedPerEpoch_` must be greater than zero"
      },
      "symbol()": {
        "details": "Returns the symbol of the token, usually a shorter version of the name."
      },
      "totalSupply()": {
        "details": "See {IERC20-totalSupply}."
      },
      "transfer(address,uint256)": {
        "details": "See {IERC20-transfer}. Requirements: - `recipient` cannot be the zero address. - the caller must have a balance of at least `amount`."
      },
      "transferFrom(address,address,uint256)": {
        "details": "See {IERC20-transferFrom}. Emits an {Approval} event indicating the updated allowance. This is not required by the EIP. See the note at the beginning of {ERC20}. Requirements: - `sender` and `recipient` cannot be the zero address. - `sender` must have a balance of at least `amount`. - the caller must have allowance for ``sender``'s tokens of at least `amount`."
      }
    },
    "version": 1
  },
  "userdoc": {
    "kind": "user",
    "methods": {},
    "version": 1
  }
}