{
  "contractName": "OpenDeFiGovernance",
  "abi": [
    {
      "inputs": [
        {
          "internalType": "string",
          "name": "name_",
          "type": "string"
        },
        {
          "internalType": "string",
          "name": "symbol_",
          "type": "string"
        },
        {
          "internalType": "uint256",
          "name": "amount_",
          "type": "uint256"
        },
        {
          "internalType": "address",
          "name": "deployer_",
          "type": "address"
        }
      ],
      "stateMutability": "nonpayable",
      "type": "constructor"
    },
    {
      "anonymous": false,
      "inputs": [
        {
          "indexed": true,
          "internalType": "address",
          "name": "owner",
          "type": "address"
        },
        {
          "indexed": true,
          "internalType": "address",
          "name": "spender",
          "type": "address"
        },
        {
          "indexed": false,
          "internalType": "uint256",
          "name": "value",
          "type": "uint256"
        }
      ],
      "name": "Approval",
      "type": "event"
    },
    {
      "anonymous": false,
      "inputs": [
        {
          "indexed": false,
          "internalType": "address",
          "name": "tokenHolder",
          "type": "address"
        },
        {
          "indexed": false,
          "internalType": "uint256",
          "name": "amountLocked",
          "type": "uint256"
        },
        {
          "indexed": false,
          "internalType": "uint256",
          "name": "time",
          "type": "uint256"
        },
        {
          "indexed": false,
          "internalType": "uint256",
          "name": "unlockPeriod",
          "type": "uint256"
        },
        {
          "indexed": false,
          "internalType": "uint256",
          "name": "unlockedPerPeriod",
          "type": "uint256"
        }
      ],
      "name": "NewTokenLock",
      "type": "event"
    },
    {
      "anonymous": false,
      "inputs": [
        {
          "indexed": true,
          "internalType": "address",
          "name": "from",
          "type": "address"
        },
        {
          "indexed": true,
          "internalType": "address",
          "name": "to",
          "type": "address"
        },
        {
          "indexed": false,
          "internalType": "uint256",
          "name": "value",
          "type": "uint256"
        }
      ],
      "name": "Transfer",
      "type": "event"
    },
    {
      "inputs": [
        {
          "internalType": "address",
          "name": "owner",
          "type": "address"
        },
        {
          "internalType": "address",
          "name": "spender",
          "type": "address"
        }
      ],
      "name": "allowance",
      "outputs": [
        {
          "internalType": "uint256",
          "name": "",
          "type": "uint256"
        }
      ],
      "stateMutability": "view",
      "type": "function"
    },
    {
      "inputs": [
        {
          "internalType": "address",
          "name": "spender",
          "type": "address"
        },
        {
          "internalType": "uint256",
          "name": "amount",
          "type": "uint256"
        }
      ],
      "name": "approve",
      "outputs": [
        {
          "internalType": "bool",
          "name": "",
          "type": "bool"
        }
      ],
      "stateMutability": "nonpayable",
      "type": "function"
    },
    {
      "inputs": [
        {
          "internalType": "address",
          "name": "account",
          "type": "address"
        }
      ],
      "name": "balanceOf",
      "outputs": [
        {
          "internalType": "uint256",
          "name": "",
          "type": "uint256"
        }
      ],
      "stateMutability": "view",
      "type": "function"
    },
    {
      "inputs": [
        {
          "internalType": "address",
          "name": "",
          "type": "address"
        }
      ],
      "name": "baseTokensLocked",
      "outputs": [
        {
          "internalType": "uint256",
          "name": "",
          "type": "uint256"
        }
      ],
      "stateMutability": "view",
      "type": "function"
    },
    {
      "inputs": [],
      "name": "decimals",
      "outputs": [
        {
          "internalType": "uint8",
          "name": "",
          "type": "uint8"
        }
      ],
      "stateMutability": "view",
      "type": "function"
    },
    {
      "inputs": [
        {
          "internalType": "address",
          "name": "spender",
          "type": "address"
        },
        {
          "internalType": "uint256",
          "name": "subtractedValue",
          "type": "uint256"
        }
      ],
      "name": "decreaseAllowance",
      "outputs": [
        {
          "internalType": "bool",
          "name": "",
          "type": "bool"
        }
      ],
      "stateMutability": "nonpayable",
      "type": "function"
    },
    {
      "inputs": [
        {
          "internalType": "address",
          "name": "spender",
          "type": "address"
        },
        {
          "internalType": "uint256",
          "name": "addedValue",
          "type": "uint256"
        }
      ],
      "name": "increaseAllowance",
      "outputs": [
        {
          "internalType": "bool",
          "name": "",
          "type": "bool"
        }
      ],
      "stateMutability": "nonpayable",
      "type": "function"
    },
    {
      "inputs": [
        {
          "internalType": "address",
          "name": "",
          "type": "address"
        }
      ],
      "name": "lockTime",
      "outputs": [
        {
          "internalType": "uint256",
          "name": "",
          "type": "uint256"
        }
      ],
      "stateMutability": "view",
      "type": "function"
    },
    {
      "inputs": [],
      "name": "name",
      "outputs": [
        {
          "internalType": "string",
          "name": "",
          "type": "string"
        }
      ],
      "stateMutability": "view",
      "type": "function"
    },
    {
      "inputs": [],
      "name": "symbol",
      "outputs": [
        {
          "internalType": "string",
          "name": "",
          "type": "string"
        }
      ],
      "stateMutability": "view",
      "type": "function"
    },
    {
      "inputs": [],
      "name": "totalSupply",
      "outputs": [
        {
          "internalType": "uint256",
          "name": "",
          "type": "uint256"
        }
      ],
      "stateMutability": "view",
      "type": "function"
    },
    {
      "inputs": [
        {
          "internalType": "address",
          "name": "recipient",
          "type": "address"
        },
        {
          "internalType": "uint256",
          "name": "amount",
          "type": "uint256"
        }
      ],
      "name": "transfer",
      "outputs": [
        {
          "internalType": "bool",
          "name": "",
          "type": "bool"
        }
      ],
      "stateMutability": "nonpayable",
      "type": "function"
    },
    {
      "inputs": [
        {
          "internalType": "address",
          "name": "sender",
          "type": "address"
        },
        {
          "internalType": "address",
          "name": "recipient",
          "type": "address"
        },
        {
          "internalType": "uint256",
          "name": "amount",
          "type": "uint256"
        }
      ],
      "name": "transferFrom",
      "outputs": [
        {
          "internalType": "bool",
          "name": "",
          "type": "bool"
        }
      ],
      "stateMutability": "nonpayable",
      "type": "function"
    },
    {
      "inputs": [
        {
          "internalType": "address",
          "name": "",
          "type": "address"
        }
      ],
      "name": "unlockEpoch",
      "outputs": [
        {
          "internalType": "uint256",
          "name": "",
          "type": "uint256"
        }
      ],
      "stateMutability": "view",
      "type": "function"
    },
    {
      "inputs": [
        {
          "internalType": "address",
          "name": "",
          "type": "address"
        }
      ],
      "name": "unlockedPerEpoch",
      "outputs": [
        {
          "internalType": "uint256",
          "name": "",
          "type": "uint256"
        }
      ],
      "stateMutability": "view",
      "type": "function"
    },
    {
      "inputs": [
        {
          "internalType": "uint256",
          "name": "baseTokensLocked_",
          "type": "uint256"
        },
        {
          "internalType": "uint256",
          "name": "unlockEpoch_",
          "type": "uint256"
        },
        {
          "internalType": "uint256",
          "name": "unlockedPerEpoch_",
          "type": "uint256"
        }
      ],
      "name": "newTokenLock",
      "outputs": [],
      "stateMutability": "nonpayable",
      "type": "function"
    },
    {
      "inputs": [],
      "name": "clearLock",
      "outputs": [],
      "stateMutability": "nonpayable",
      "type": "function"
    },
    {
      "inputs": [
        {
          "internalType": "address",
          "name": "who",
          "type": "address"
        }
      ],
      "name": "balanceUnlocked",
      "outputs": [
        {
          "internalType": "uint256",
          "name": "amount",
          "type": "uint256"
        }
      ],
      "stateMutability": "view",
      "type": "function"
    },
    {
      "inputs": [
        {
          "internalType": "address",
          "name": "who",
          "type": "address"
        }
      ],
      "name": "balanceLocked",
      "outputs": [
        {
          "internalType": "uint256",
          "name": "amount",
          "type": "uint256"
        }
      ],
      "stateMutability": "view",
      "type": "function"
    },
    {
      "inputs": [
        {
          "internalType": "uint256",
          "name": "newAmount",
          "type": "uint256"
        }
      ],
      "name": "reduceUnlockAmountTo",
      "outputs": [],
      "stateMutability": "nonpayable",
      "type": "function"
    },
    {
      "inputs": [
        {
          "internalType": "uint256",
          "name": "newTime",
          "type": "uint256"
        }
      ],
      "name": "increaseUnlockTime",
      "outputs": [],
      "stateMutability": "nonpayable",
      "type": "function"
    },
    {
      "inputs": [
        {
          "internalType": "uint256",
          "name": "newAmount",
          "type": "uint256"
        }
      ],
      "name": "increaseTokensLocked",
      "outputs": [],
      "stateMutability": "nonpayable",
      "type": "function"
    }
  ],
  "bytecode": "0x60806040523480156200001157600080fd5b50604051620039f7380380620039f783398181016040528101906200003791906200085d565b83838160039080519060200190620000519291906200070d565b5080600490805190602001906200006a9291906200070d565b5050506200007f81836200008960201b60201c565b5050505062000d8d565b600073ffffffffffffffffffffffffffffffffffffffff168273ffffffffffffffffffffffffffffffffffffffff161415620000fc576040517f08c379a0000000000000000000000000000000000000000000000000000000008152600401620000f39062000998565b60405180910390fd5b6200011060008383620001ee60201b60201c565b806002600082825462000124919062000a52565b92505081905550806000808473ffffffffffffffffffffffffffffffffffffffff1673ffffffffffffffffffffffffffffffffffffffff16815260200190815260200160002060008282546200017b919062000a52565b925050819055508173ffffffffffffffffffffffffffffffffffffffff16600073ffffffffffffffffffffffffffffffffffffffff167fddf252ad1be2c89b69c2b068fc378daa952ba7f163c4a11628f55a4df523b3ef83604051620001e29190620009ba565b60405180910390a35050565b600073ffffffffffffffffffffffffffffffffffffffff168373ffffffffffffffffffffffffffffffffffffffff1614806200023a575062000236836200029e60201b60201c565b8111155b604051806060016040528060278152602001620039d0602791399062000298576040517f08c379a00000000000000000000000000000000000000000000000000000000081526004016200028f919062000974565b60405180910390fd5b50505050565b6000620002d2620002b583620002d960201b60201c565b620002c6846200032160201b60201c565b6200051760201b60201c565b9050919050565b60008060008373ffffffffffffffffffffffffffffffffffffffff1673ffffffffffffffffffffffffffffffffffffffff168152602001908152602001600020549050919050565b600080600860008473ffffffffffffffffffffffffffffffffffffffff1673ffffffffffffffffffffffffffffffffffffffff16815260200190815260200160002054141562000375576000905062000512565b600062000468600760008573ffffffffffffffffffffffffffffffffffffffff1673ffffffffffffffffffffffffffffffffffffffff168152602001908152602001600020546200045c6200041042600560008973ffffffffffffffffffffffffffffffffffffffff1673ffffffffffffffffffffffffffffffffffffffff168152602001908152602001600020546200051760201b60201c565b600660008873ffffffffffffffffffffffffffffffffffffffff1673ffffffffffffffffffffffffffffffffffffffff16815260200190815260200160002054620005b460201b60201c565b6200065060201b60201c565b905080600860008573ffffffffffffffffffffffffffffffffffffffff1673ffffffffffffffffffffffffffffffffffffffff168152602001908152602001600020541015620004bd57600091505062000512565b6200050e600860008573ffffffffffffffffffffffffffffffffffffffff1673ffffffffffffffffffffffffffffffffffffffff16815260200190815260200160002054826200051760201b60201c565b9150505b919050565b6000828211156040518060400160405280601281526020017f4d4154485f5355425f554e444552464c4f5700000000000000000000000000008152509062000597576040517f08c379a00000000000000000000000000000000000000000000000000000000081526004016200058e919062000974565b60405180910390fd5b5060008284620005a8919062000b48565b90508091505092915050565b60008082116040518060400160405280600d81526020017f4d4154485f4449565f5a45524f000000000000000000000000000000000000008152509062000633576040517f08c379a00000000000000000000000000000000000000000000000000000000081526004016200062a919062000974565b60405180910390fd5b506000828462000644919062000aaf565b90508091505092915050565b60008083141562000665576000905062000707565b6000828462000675919062000ae7565b905082848262000686919062000aaf565b146040518060400160405280601181526020017f4d4154485f4d554c5f4f564552464c4f570000000000000000000000000000008152509062000701576040517f08c379a0000000000000000000000000000000000000000000000000000000008152600401620006f8919062000974565b60405180910390fd5b50809150505b92915050565b8280546200071b9062000bf7565b90600052602060002090601f0160209004810192826200073f57600085556200078b565b82601f106200075a57805160ff19168380011785556200078b565b828001600101855582156200078b579182015b828111156200078a5782518255916020019190600101906200076d565b5b5090506200079a91906200079e565b5090565b5b80821115620007b95760008160009055506001016200079f565b5090565b6000620007d4620007ce8462000a00565b620009d7565b905082815260208101848484011115620007ed57600080fd5b620007fa84828562000bc1565b509392505050565b600081519050620008138162000d59565b92915050565b600082601f8301126200082b57600080fd5b81516200083d848260208601620007bd565b91505092915050565b600081519050620008578162000d73565b92915050565b600080600080608085870312156200087457600080fd5b600085015167ffffffffffffffff8111156200088f57600080fd5b6200089d8782880162000819565b945050602085015167ffffffffffffffff811115620008bb57600080fd5b620008c98782880162000819565b9350506040620008dc8782880162000846565b9250506060620008ef8782880162000802565b91505092959194509250565b6000620009088262000a36565b62000914818562000a41565b93506200092681856020860162000bc1565b620009318162000d1f565b840191505092915050565b60006200094b601f8362000a41565b9150620009588262000d30565b602082019050919050565b6200096e8162000bb7565b82525050565b60006020820190508181036000830152620009908184620008fb565b905092915050565b60006020820190508181036000830152620009b3816200093c565b9050919050565b6000602082019050620009d1600083018462000963565b92915050565b6000620009e3620009f6565b9050620009f1828262000c2d565b919050565b6000604051905090565b600067ffffffffffffffff82111562000a1e5762000a1d62000cf0565b5b62000a298262000d1f565b9050602081019050919050565b600081519050919050565b600082825260208201905092915050565b600062000a5f8262000bb7565b915062000a6c8362000bb7565b9250827fffffffffffffffffffffffffffffffffffffffffffffffffffffffffffffffff0382111562000aa45762000aa362000c63565b5b828201905092915050565b600062000abc8262000bb7565b915062000ac98362000bb7565b92508262000adc5762000adb62000c92565b5b828204905092915050565b600062000af48262000bb7565b915062000b018362000bb7565b9250817fffffffffffffffffffffffffffffffffffffffffffffffffffffffffffffffff048311821515161562000b3d5762000b3c62000c63565b5b828202905092915050565b600062000b558262000bb7565b915062000b628362000bb7565b92508282101562000b785762000b7762000c63565b5b828203905092915050565b600062000b908262000b97565b9050919050565b600073ffffffffffffffffffffffffffffffffffffffff82169050919050565b6000819050919050565b60005b8381101562000be157808201518184015260208101905062000bc4565b8381111562000bf1576000848401525b50505050565b6000600282049050600182168062000c1057607f821691505b6020821081141562000c275762000c2662000cc1565b5b50919050565b62000c388262000d1f565b810181811067ffffffffffffffff8211171562000c5a5762000c5962000cf0565b5b80604052505050565b7f4e487b7100000000000000000000000000000000000000000000000000000000600052601160045260246000fd5b7f4e487b7100000000000000000000000000000000000000000000000000000000600052601260045260246000fd5b7f4e487b7100000000000000000000000000000000000000000000000000000000600052602260045260246000fd5b7f4e487b7100000000000000000000000000000000000000000000000000000000600052604160045260246000fd5b6000601f19601f8301169050919050565b7f45524332303a206d696e7420746f20746865207a65726f206164647265737300600082015250565b62000d648162000b83565b811462000d7057600080fd5b50565b62000d7e8162000bb7565b811462000d8a57600080fd5b50565b612c338062000d9d6000396000f3fe608060405234801561001057600080fd5b50600436106101425760003560e01c80637c616fe6116100b8578063a9059cbb1161007c578063a9059cbb146103d7578063c19b803614610407578063c52c710414610411578063c619af141461042d578063d8a67fd514610449578063dd62ed3e1461047957610142565b80637c616fe61461032157806383f918371461033d57806395d89b4114610359578063a457c2d714610377578063a4beda63146103a757610142565b806323b872dd1161010a57806323b872dd14610213578063313ce5671461024357806339509351146102615780635fc3a3121461029157806370a08231146102c157806374af3447146102f157610142565b80630451f5201461014757806306fdde0314610177578063095ea7b31461019557806318160ddd146101c55780631ca7925c146101e3575b600080fd5b610161600480360381019061015c9190612146565b6104a9565b60405161016e9190612588565b60405180910390f35b61017f6104cc565b60405161018c9190612486565b60405180910390f35b6101af60048036038101906101aa91906121fa565b61055e565b6040516101bc919061246b565b60405180910390f35b6101cd61057c565b6040516101da9190612588565b60405180910390f35b6101fd60048036038101906101f89190612146565b610586565b60405161020a9190612588565b60405180910390f35b61022d600480360381019061022891906121ab565b61059e565b60405161023a919061246b565b60405180910390f35b61024b61069f565b60405161025891906125a3565b60405180910390f35b61027b600480360381019061027691906121fa565b6106a8565b604051610288919061246b565b60405180910390f35b6102ab60048036038101906102a69190612146565b610754565b6040516102b89190612588565b60405180910390f35b6102db60048036038101906102d69190612146565b610926565b6040516102e89190612588565b60405180910390f35b61030b60048036038101906103069190612146565b61096e565b6040516103189190612588565b60405180910390f35b61033b60048036038101906103369190612236565b610986565b005b6103576004803603810190610352919061225f565b610c0c565b005b61036161102e565b60405161036e9190612486565b60405180910390f35b610391600480360381019061038c91906121fa565b6110c0565b60405161039e919061246b565b60405180910390f35b6103c160048036038101906103bc9190612146565b6111b4565b6040516103ce9190612588565b60405180910390f35b6103f160048036038101906103ec91906121fa565b6111cc565b6040516103fe919061246b565b60405180910390f35b61040f6111ea565b005b61042b60048036038101906104269190612236565b611367565b005b61044760048036038101906104429190612236565b6115ed565b005b610463600480360381019061045e9190612146565b61190e565b6040516104709190612588565b60405180910390f35b610493600480360381019061048e919061216f565b611926565b6040516104a09190612588565b60405180910390f35b60006104c56104b783610926565b6104c084610754565b6119ad565b9050919050565b6060600380546104db90612777565b80601f016020809104026020016040519081016040528092919081815260200182805461050790612777565b80156105545780601f1061052957610100808354040283529160200191610554565b820191906000526020600020905b81548152906001019060200180831161053757829003601f168201915b5050505050905090565b600061057261056b611a45565b8484611a4d565b6001905092915050565b6000600254905090565b60066020528060005260406000206000915090505481565b60006105ab848484611c18565b6000600160008673ffffffffffffffffffffffffffffffffffffffff1673ffffffffffffffffffffffffffffffffffffffff16815260200190815260200160002060006105f6611a45565b73ffffffffffffffffffffffffffffffffffffffff1673ffffffffffffffffffffffffffffffffffffffff16815260200190815260200160002054905082811015610676576040517f08c379a000000000000000000000000000000000000000000000000000000000815260040161066d90612508565b60405180910390fd5b61069385610682611a45565b858461068e91906126bb565b611a4d565b60019150509392505050565b60006012905090565b600061074a6106b5611a45565b8484600160006106c3611a45565b73ffffffffffffffffffffffffffffffffffffffff1673ffffffffffffffffffffffffffffffffffffffff16815260200190815260200160002060008873ffffffffffffffffffffffffffffffffffffffff1673ffffffffffffffffffffffffffffffffffffffff1681526020019081526020016000205461074591906125da565b611a4d565b6001905092915050565b600080600860008473ffffffffffffffffffffffffffffffffffffffff1673ffffffffffffffffffffffffffffffffffffffff1681526020019081526020016000205414156107a65760009050610921565b6000610881600760008573ffffffffffffffffffffffffffffffffffffffff1673ffffffffffffffffffffffffffffffffffffffff1681526020019081526020016000205461087c61083742600560008973ffffffffffffffffffffffffffffffffffffffff1673ffffffffffffffffffffffffffffffffffffffff168152602001908152602001600020546119ad565b600660008873ffffffffffffffffffffffffffffffffffffffff1673ffffffffffffffffffffffffffffffffffffffff16815260200190815260200160002054611e97565b611f2e565b905080600860008573ffffffffffffffffffffffffffffffffffffffff1673ffffffffffffffffffffffffffffffffffffffff1681526020019081526020016000205410156108d4576000915050610921565b61091d600860008573ffffffffffffffffffffffffffffffffffffffff1673ffffffffffffffffffffffffffffffffffffffff16815260200190815260200160002054826119ad565b9150505b919050565b60008060008373ffffffffffffffffffffffffffffffffffffffff1673ffffffffffffffffffffffffffffffffffffffff168152602001908152602001600020549050919050565b60076020528060005260406000206000915090505481565b600660003373ffffffffffffffffffffffffffffffffffffffff1673ffffffffffffffffffffffffffffffffffffffff1681526020019081526020016000205481116040518060600160405280602c8152602001612af1602c913990610a22576040517f08c379a0000000000000000000000000000000000000000000000000000000008152600401610a199190612486565b60405180910390fd5b506000610a2e33610754565b116040518060600160405280602b8152602001612ba7602b913990610a89576040517f08c379a0000000000000000000000000000000000000000000000000000000008152600401610a809190612486565b60405180910390fd5b5080600660003373ffffffffffffffffffffffffffffffffffffffff1673ffffffffffffffffffffffffffffffffffffffff168152602001908152602001600020819055507f14dd38da30c9da84bbafc0a82aca4fe12d2802342bdff3aee7cba29b3dace69c33600860003373ffffffffffffffffffffffffffffffffffffffff1673ffffffffffffffffffffffffffffffffffffffff16815260200190815260200160002054600560003373ffffffffffffffffffffffffffffffffffffffff1673ffffffffffffffffffffffffffffffffffffffff16815260200190815260200160002054600660003373ffffffffffffffffffffffffffffffffffffffff1673ffffffffffffffffffffffffffffffffffffffff16815260200190815260200160002054600760003373ffffffffffffffffffffffffffffffffffffffff1673ffffffffffffffffffffffffffffffffffffffff16815260200190815260200160002054604051610c01959493929190612418565b60405180910390a150565b6000610c1733610754565b146040518060400160405280601981526020017f546f6b656e206c6f636b20616c7265616479206578697374730000000000000081525090610c8f576040517f08c379a0000000000000000000000000000000000000000000000000000000008152600401610c869190612486565b60405180910390fd5b5082610c9a33610926565b10156040518060400160405280601981526020017f4e6f7420656e6f75676820746f6b656e7320746f206c6f636b0000000000000081525090610d13576040517f08c379a0000000000000000000000000000000000000000000000000000000008152600401610d0a9190612486565b60405180910390fd5b5060008211604051806060016040528060298152602001612a9f6029913990610d72576040517f08c379a0000000000000000000000000000000000000000000000000000000008152600401610d699190612486565b60405180910390fd5b50828111158015610d835750600081115b604051806060016040528060358152602001612b4b6035913990610ddd576040517f08c379a0000000000000000000000000000000000000000000000000000000008152600401610dd49190612486565b60405180910390fd5b5042600560003373ffffffffffffffffffffffffffffffffffffffff1673ffffffffffffffffffffffffffffffffffffffff1681526020019081526020016000208190555081600660003373ffffffffffffffffffffffffffffffffffffffff1673ffffffffffffffffffffffffffffffffffffffff1681526020019081526020016000208190555080600760003373ffffffffffffffffffffffffffffffffffffffff1673ffffffffffffffffffffffffffffffffffffffff1681526020019081526020016000208190555082600860003373ffffffffffffffffffffffffffffffffffffffff1673ffffffffffffffffffffffffffffffffffffffff168152602001908152602001600020819055507f14dd38da30c9da84bbafc0a82aca4fe12d2802342bdff3aee7cba29b3dace69c33600860003373ffffffffffffffffffffffffffffffffffffffff1673ffffffffffffffffffffffffffffffffffffffff16815260200190815260200160002054600560003373ffffffffffffffffffffffffffffffffffffffff1673ffffffffffffffffffffffffffffffffffffffff16815260200190815260200160002054600660003373ffffffffffffffffffffffffffffffffffffffff1673ffffffffffffffffffffffffffffffffffffffff16815260200190815260200160002054600760003373ffffffffffffffffffffffffffffffffffffffff1673ffffffffffffffffffffffffffffffffffffffff16815260200190815260200160002054604051611021959493929190612418565b60405180910390a1505050565b60606004805461103d90612777565b80601f016020809104026020016040519081016040528092919081815260200182805461106990612777565b80156110b65780601f1061108b576101008083540402835291602001916110b6565b820191906000526020600020905b81548152906001019060200180831161109957829003601f168201915b5050505050905090565b600080600160006110cf611a45565b73ffffffffffffffffffffffffffffffffffffffff1673ffffffffffffffffffffffffffffffffffffffff16815260200190815260200160002060008573ffffffffffffffffffffffffffffffffffffffff1673ffffffffffffffffffffffffffffffffffffffff1681526020019081526020016000205490508281101561118c576040517f08c379a000000000000000000000000000000000000000000000000000000000815260040161118390612568565b60405180910390fd5b6111a9611197611a45565b8585846111a491906126bb565b611a4d565b600191505092915050565b60056020528060005260406000206000915090505481565b60006111e06111d9611a45565b8484611c18565b6001905092915050565b60006111f533610754565b14604051806060016040528060298152602001612ac86029913990611250576040517f08c379a00000000000000000000000000000000000000000000000000000000081526004016112479190612486565b60405180910390fd5b506000600560003373ffffffffffffffffffffffffffffffffffffffff1673ffffffffffffffffffffffffffffffffffffffff168152602001908152602001600020819055506000600660003373ffffffffffffffffffffffffffffffffffffffff1673ffffffffffffffffffffffffffffffffffffffff168152602001908152602001600020819055506000600760003373ffffffffffffffffffffffffffffffffffffffff1673ffffffffffffffffffffffffffffffffffffffff168152602001908152602001600020819055506000600860003373ffffffffffffffffffffffffffffffffffffffff1673ffffffffffffffffffffffffffffffffffffffff16815260200190815260200160002081905550565b600760003373ffffffffffffffffffffffffffffffffffffffff1673ffffffffffffffffffffffffffffffffffffffff1681526020019081526020016000205481106040518060600160405280602c8152602001612bd2602c913990611403576040517f08c379a00000000000000000000000000000000000000000000000000000000081526004016113fa9190612486565b60405180910390fd5b50600061140f33610754565b116040518060600160405280602b8152602001612ba7602b91399061146a576040517f08c379a00000000000000000000000000000000000000000000000000000000081526004016114619190612486565b60405180910390fd5b5080600760003373ffffffffffffffffffffffffffffffffffffffff1673ffffffffffffffffffffffffffffffffffffffff168152602001908152602001600020819055507f14dd38da30c9da84bbafc0a82aca4fe12d2802342bdff3aee7cba29b3dace69c33600860003373ffffffffffffffffffffffffffffffffffffffff1673ffffffffffffffffffffffffffffffffffffffff16815260200190815260200160002054600560003373ffffffffffffffffffffffffffffffffffffffff1673ffffffffffffffffffffffffffffffffffffffff16815260200190815260200160002054600660003373ffffffffffffffffffffffffffffffffffffffff1673ffffffffffffffffffffffffffffffffffffffff16815260200190815260200160002054600760003373ffffffffffffffffffffffffffffffffffffffff1673ffffffffffffffffffffffffffffffffffffffff168152602001908152602001600020546040516115e2959493929190612418565b60405180910390a150565b600081116040518060600160405280602e8152602001612b1d602e91399061164b576040517f08c379a00000000000000000000000000000000000000000000000000000000081526004016116429190612486565b60405180910390fd5b50600061165733610754565b116040518060600160405280602b8152602001612ba7602b9139906116b2576040517f08c379a00000000000000000000000000000000000000000000000000000000081526004016116a99190612486565b60405180910390fd5b506116bc336104a9565b8111156040518060400160405280601981526020017f4e6f7420656e6f75676820746f6b656e7320746f206c6f636b0000000000000081525090611736576040517f08c379a000000000000000000000000000000000000000000000000000000000815260040161172d9190612486565b60405180910390fd5b506117498161174433610754565b611fe2565b600860003373ffffffffffffffffffffffffffffffffffffffff1673ffffffffffffffffffffffffffffffffffffffff1681526020019081526020016000208190555042600560003373ffffffffffffffffffffffffffffffffffffffff1673ffffffffffffffffffffffffffffffffffffffff168152602001908152602001600020819055507f14dd38da30c9da84bbafc0a82aca4fe12d2802342bdff3aee7cba29b3dace69c33600860003373ffffffffffffffffffffffffffffffffffffffff1673ffffffffffffffffffffffffffffffffffffffff16815260200190815260200160002054600560003373ffffffffffffffffffffffffffffffffffffffff1673ffffffffffffffffffffffffffffffffffffffff16815260200190815260200160002054600660003373ffffffffffffffffffffffffffffffffffffffff1673ffffffffffffffffffffffffffffffffffffffff16815260200190815260200160002054600760003373ffffffffffffffffffffffffffffffffffffffff1673ffffffffffffffffffffffffffffffffffffffff16815260200190815260200160002054604051611903959493929190612418565b60405180910390a150565b60086020528060005260406000206000915090505481565b6000600160008473ffffffffffffffffffffffffffffffffffffffff1673ffffffffffffffffffffffffffffffffffffffff16815260200190815260200160002060008373ffffffffffffffffffffffffffffffffffffffff1673ffffffffffffffffffffffffffffffffffffffff16815260200190815260200160002054905092915050565b6000828211156040518060400160405280601281526020017f4d4154485f5355425f554e444552464c4f57000000000000000000000000000081525090611a2a576040517f08c379a0000000000000000000000000000000000000000000000000000000008152600401611a219190612486565b60405180910390fd5b5060008284611a3991906126bb565b90508091505092915050565b600033905090565b600073ffffffffffffffffffffffffffffffffffffffff168373ffffffffffffffffffffffffffffffffffffffff161415611abd576040517f08c379a0000000000000000000000000000000000000000000000000000000008152600401611ab490612548565b60405180910390fd5b600073ffffffffffffffffffffffffffffffffffffffff168273ffffffffffffffffffffffffffffffffffffffff161415611b2d576040517f08c379a0000000000000000000000000000000000000000000000000000000008152600401611b24906124c8565b60405180910390fd5b80600160008573ffffffffffffffffffffffffffffffffffffffff1673ffffffffffffffffffffffffffffffffffffffff16815260200190815260200160002060008473ffffffffffffffffffffffffffffffffffffffff1673ffffffffffffffffffffffffffffffffffffffff168152602001908152602001600020819055508173ffffffffffffffffffffffffffffffffffffffff168373ffffffffffffffffffffffffffffffffffffffff167f8c5be1e5ebec7d5bd14f71427d1e84f3dd0314c0f7b2291e5b200ac8c7c3b92583604051611c0b9190612588565b60405180910390a3505050565b600073ffffffffffffffffffffffffffffffffffffffff168373ffffffffffffffffffffffffffffffffffffffff161415611c88576040517f08c379a0000000000000000000000000000000000000000000000000000000008152600401611c7f90612528565b60405180910390fd5b600073ffffffffffffffffffffffffffffffffffffffff168273ffffffffffffffffffffffffffffffffffffffff161415611cf8576040517f08c379a0000000000000000000000000000000000000000000000000000000008152600401611cef906124a8565b60405180910390fd5b611d03838383612079565b60008060008573ffffffffffffffffffffffffffffffffffffffff1673ffffffffffffffffffffffffffffffffffffffff16815260200190815260200160002054905081811015611d89576040517f08c379a0000000000000000000000000000000000000000000000000000000008152600401611d80906124e8565b60405180910390fd5b8181611d9591906126bb565b6000808673ffffffffffffffffffffffffffffffffffffffff1673ffffffffffffffffffffffffffffffffffffffff16815260200190815260200160002081905550816000808573ffffffffffffffffffffffffffffffffffffffff1673ffffffffffffffffffffffffffffffffffffffff1681526020019081526020016000206000828254611e2591906125da565b925050819055508273ffffffffffffffffffffffffffffffffffffffff168473ffffffffffffffffffffffffffffffffffffffff167fddf252ad1be2c89b69c2b068fc378daa952ba7f163c4a11628f55a4df523b3ef84604051611e899190612588565b60405180910390a350505050565b60008082116040518060400160405280600d81526020017f4d4154485f4449565f5a45524f0000000000000000000000000000000000000081525090611f13576040517f08c379a0000000000000000000000000000000000000000000000000000000008152600401611f0a9190612486565b60405180910390fd5b5060008284611f229190612630565b90508091505092915050565b600080831415611f415760009050611fdc565b60008284611f4f9190612661565b9050828482611f5e9190612630565b146040518060400160405280601181526020017f4d4154485f4d554c5f4f564552464c4f5700000000000000000000000000000081525090611fd6576040517f08c379a0000000000000000000000000000000000000000000000000000000008152600401611fcd9190612486565b60405180910390fd5b50809150505b92915050565b6000808284611ff191906125da565b9050838110156040518060400160405280601181526020017f4d4154485f4144445f4f564552464c4f570000000000000000000000000000008152509061206e576040517f08c379a00000000000000000000000000000000000000000000000000000000081526004016120659190612486565b60405180910390fd5b508091505092915050565b600073ffffffffffffffffffffffffffffffffffffffff168373ffffffffffffffffffffffffffffffffffffffff1614806120bc57506120b8836104a9565b8111155b604051806060016040528060278152602001612b806027913990612116576040517f08c379a000000000000000000000000000000000000000000000000000000000815260040161210d9190612486565b60405180910390fd5b50505050565b60008135905061212b81612a70565b92915050565b60008135905061214081612a87565b92915050565b60006020828403121561215857600080fd5b60006121668482850161211c565b91505092915050565b6000806040838503121561218257600080fd5b60006121908582860161211c565b92505060206121a18582860161211c565b9150509250929050565b6000806000606084860312156121c057600080fd5b60006121ce8682870161211c565b93505060206121df8682870161211c565b92505060406121f086828701612131565b9150509250925092565b6000806040838503121561220d57600080fd5b600061221b8582860161211c565b925050602061222c85828601612131565b9150509250929050565b60006020828403121561224857600080fd5b600061225684828501612131565b91505092915050565b60008060006060848603121561227457600080fd5b600061228286828701612131565b935050602061229386828701612131565b92505060406122a486828701612131565b9150509250925092565b6122b7816126ef565b82525050565b6122c681612701565b82525050565b60006122d7826125be565b6122e181856125c9565b93506122f1818560208601612744565b6122fa81612836565b840191505092915050565b60006123126023836125c9565b915061231d82612847565b604082019050919050565b60006123356022836125c9565b915061234082612896565b604082019050919050565b60006123586026836125c9565b9150612363826128e5565b604082019050919050565b600061237b6028836125c9565b915061238682612934565b604082019050919050565b600061239e6025836125c9565b91506123a982612983565b604082019050919050565b60006123c16024836125c9565b91506123cc826129d2565b604082019050919050565b60006123e46025836125c9565b91506123ef82612a21565b604082019050919050565b6124038161272d565b82525050565b61241281612737565b82525050565b600060a08201905061242d60008301886122ae565b61243a60208301876123fa565b61244760408301866123fa565b61245460608301856123fa565b61246160808301846123fa565b9695505050505050565b600060208201905061248060008301846122bd565b92915050565b600060208201905081810360008301526124a081846122cc565b905092915050565b600060208201905081810360008301526124c181612305565b9050919050565b600060208201905081810360008301526124e181612328565b9050919050565b600060208201905081810360008301526125018161234b565b9050919050565b600060208201905081810360008301526125218161236e565b9050919050565b6000602082019050818103600083015261254181612391565b9050919050565b60006020820190508181036000830152612561816123b4565b9050919050565b60006020820190508181036000830152612581816123d7565b9050919050565b600060208201905061259d60008301846123fa565b92915050565b60006020820190506125b86000830184612409565b92915050565b600081519050919050565b600082825260208201905092915050565b60006125e58261272d565b91506125f08361272d565b9250827fffffffffffffffffffffffffffffffffffffffffffffffffffffffffffffffff03821115612625576126246127a9565b5b828201905092915050565b600061263b8261272d565b91506126468361272d565b925082612656576126556127d8565b5b828204905092915050565b600061266c8261272d565b91506126778361272d565b9250817fffffffffffffffffffffffffffffffffffffffffffffffffffffffffffffffff04831182151516156126b0576126af6127a9565b5b828202905092915050565b60006126c68261272d565b91506126d18361272d565b9250828210156126e4576126e36127a9565b5b828203905092915050565b60006126fa8261270d565b9050919050565b60008115159050919050565b600073ffffffffffffffffffffffffffffffffffffffff82169050919050565b6000819050919050565b600060ff82169050919050565b60005b83811015612762578082015181840152602081019050612747565b83811115612771576000848401525b50505050565b6000600282049050600182168061278f57607f821691505b602082108114156127a3576127a2612807565b5b50919050565b7f4e487b7100000000000000000000000000000000000000000000000000000000600052601160045260246000fd5b7f4e487b7100000000000000000000000000000000000000000000000000000000600052601260045260246000fd5b7f4e487b7100000000000000000000000000000000000000000000000000000000600052602260045260246000fd5b6000601f19601f8301169050919050565b7f45524332303a207472616e7366657220746f20746865207a65726f206164647260008201527f6573730000000000000000000000000000000000000000000000000000000000602082015250565b7f45524332303a20617070726f766520746f20746865207a65726f20616464726560008201527f7373000000000000000000000000000000000000000000000000000000000000602082015250565b7f45524332303a207472616e7366657220616d6f756e742065786365656473206260008201527f616c616e63650000000000000000000000000000000000000000000000000000602082015250565b7f45524332303a207472616e7366657220616d6f756e742065786365656473206160008201527f6c6c6f77616e6365000000000000000000000000000000000000000000000000602082015250565b7f45524332303a207472616e736665722066726f6d20746865207a65726f20616460008201527f6472657373000000000000000000000000000000000000000000000000000000602082015250565b7f45524332303a20617070726f76652066726f6d20746865207a65726f2061646460008201527f7265737300000000000000000000000000000000000000000000000000000000602082015250565b7f45524332303a2064656372656173656420616c6c6f77616e63652062656c6f7760008201527f207a65726f000000000000000000000000000000000000000000000000000000602082015250565b612a79816126ef565b8114612a8457600080fd5b50565b612a908161272d565b8114612a9b57600080fd5b5056fe556e6c6f636b20696e74657276616c206d7573742062652067726561746572207468616e207a65726f43616e6e6f7420636c656172206c6f636b207768696c6520746f6b656e7320617265206c6f636b65644e657720756e6c6f636b2074696d65206d7573742062652067726561746572207468616e2063757272656e744e657720616d6f756e74206c6f636b6564206d7573742062652067726561746572207468616e2063757272656e74556e6c6f636b20616d6f756e74206d757374206265206265747765656e203120616e6420746865206c6f636b656420616d6f756e744e6f7420656e6f75676820756e6c6f636b656420746f6b656e7320666f72207472616e736665724e6f20746f6b656e7320617265206c6f636b65642c20637265617465206e6577206c6f636b2066697273744e657720756e6c6f636b20616d6f756e74206d757374206265206c6f776572207468616e2063757272656e74a2646970667358221220bea6bb3a41a973d1a5dbe2d3d0a243cac5193f111a505c244a721da91a4cbee864736f6c634300080200334e6f7420656e6f75676820756e6c6f636b656420746f6b656e7320666f72207472616e73666572",
  "immutableReferences": {},
  "source": "// References:\n//https://github.com/OpenZeppelin/openzeppelin-contracts/blob/master/contracts/token/ERC20/ERC20.sol\n//https://github.com/OpenZeppelin/openzeppelin-contracts/blob/master/contracts/utils/math/SafeMath.sol\n\n/**\nCopyright 2021 Open DeFi DAO\n\n\nPermission is hereby granted, free of charge, to any person obtaining a copy of this software and associated documentation files (the \"Software\"), to deal in the Software without restriction, including without limitation the rights to use, copy, modify, merge, publish, distribute, sublicense, and/or sell copies of the Software, and to permit persons to whom the Software is furnished to do so, subject to the following conditions:\n\nThe above copyright notice and this permission notice shall be included in all copies or substantial portions of the Software.\n\nTHE SOFTWARE IS PROVIDED \"AS IS\", WITHOUT WARRANTY OF ANY KIND, EXPRESS OR IMPLIED, INCLUDING BUT NOT LIMITED TO THE WARRANTIES OF MERCHANTABILITY, FITNESS FOR A PARTICULAR PURPOSE AND NONINFRINGEMENT. IN NO EVENT SHALL THE AUTHORS OR COPYRIGHT HOLDERS BE LIABLE FOR ANY CLAIM, DAMAGES OR OTHER LIABILITY, WHETHER IN AN ACTION OF CONTRACT, TORT OR OTHERWISE, ARISING FROM, OUT OF OR IN CONNECTION WITH THE SOFTWARE OR THE USE OR OTHER DEALINGS IN THE SOFTWARE.\n * */\n \npragma solidity ^0.8.0;\n\n\n\n/**\n * @dev Interface of the ERC20 standard as defined in the EIP.\n */\ninterface IERC20 {\n    /**\n     * @dev Returns the amount of tokens in existence.\n     */\n    function totalSupply() external view returns (uint256);\n\n    /**\n     * @dev Returns the amount of tokens owned by `account`.\n     */\n    function balanceOf(address account) external view returns (uint256);\n\n    /**\n     * @dev Moves `amount` tokens from the caller's account to `recipient`.\n     *\n     * Returns a boolean value indicating whether the operation succeeded.\n     *\n     * Emits a {Transfer} event.\n     */\n    function transfer(address recipient, uint256 amount) external returns (bool);\n\n    /**\n     * @dev Returns the remaining number of tokens that `spender` will be\n     * allowed to spend on behalf of `owner` through {transferFrom}. This is\n     * zero by default.\n     *\n     * This value changes when {approve} or {transferFrom} are called.\n     */\n    function allowance(address owner, address spender) external view returns (uint256);\n\n    /**\n     * @dev Sets `amount` as the allowance of `spender` over the caller's tokens.\n     *\n     * Returns a boolean value indicating whether the operation succeeded.\n     *\n     * IMPORTANT: Beware that changing an allowance with this method brings the risk\n     * that someone may use both the old and the new allowance by unfortunate\n     * transaction ordering. One possible solution to mitigate this race\n     * condition is to first reduce the spender's allowance to 0 and set the\n     * desired value afterwards:\n     * https://github.com/ethereum/EIPs/issues/20#issuecomment-263524729\n     *\n     * Emits an {Approval} event.\n     */\n    function approve(address spender, uint256 amount) external returns (bool);\n\n    /**\n     * @dev Moves `amount` tokens from `sender` to `recipient` using the\n     * allowance mechanism. `amount` is then deducted from the caller's\n     * allowance.\n     *\n     * Returns a boolean value indicating whether the operation succeeded.\n     *\n     * Emits a {Transfer} event.\n     */\n    function transferFrom(address sender, address recipient, uint256 amount) external returns (bool);\n\n    /**\n     * @dev Emitted when `value` tokens are moved from one account (`from`) to\n     * another (`to`).\n     *\n     * Note that `value` may be zero.\n     */\n    event Transfer(address indexed from, address indexed to, uint256 value);\n\n    /**\n     * @dev Emitted when the allowance of a `spender` for an `owner` is set by\n     * a call to {approve}. `value` is the new allowance.\n     */\n    event Approval(address indexed owner, address indexed spender, uint256 value);\n}\n\n/**\n * @dev Interface for the optional metadata functions from the ERC20 standard.\n *\n * _Available since v4.1._\n */\ninterface IERC20Metadata is IERC20 {\n    /**\n     * @dev Returns the name of the token.\n     */\n    function name() external view returns (string memory);\n\n    /**\n     * @dev Returns the symbol of the token.\n     */\n    function symbol() external view returns (string memory);\n\n    /**\n     * @dev Returns the decimals places of the token.\n     */\n    function decimals() external view returns (uint8);\n}\n\n/*\n * @dev Provides information about the current execution context, including the\n * sender of the transaction and its data. While these are generally available\n * via msg.sender and msg.data, they should not be accessed in such a direct\n * manner, since when dealing with meta-transactions the account sending and\n * paying for execution may not be the actual sender (as far as an application\n * is concerned).\n *\n * This contract is only required for intermediate, library-like contracts.\n */\nabstract contract Context {\n    function _msgSender() internal view virtual returns (address) {\n        return msg.sender;\n    }\n\n    function _msgData() internal view virtual returns (bytes calldata) {\n        this; // silence state mutability warning without generating bytecode - see https://github.com/ethereum/solidity/issues/2691\n        return msg.data;\n    }\n}\n\n/**\n * @dev Implementation of the {IERC20} interface.\n *\n * This implementation is agnostic to the way tokens are created. This means\n * that a supply mechanism has to be added in a derived contract using {_mint}.\n * For a generic mechanism see {ERC20PresetMinterPauser}.\n *\n * TIP: For a detailed writeup see our guide\n * https://forum.zeppelin.solutions/t/how-to-implement-erc20-supply-mechanisms/226[How\n * to implement supply mechanisms].\n *\n * We have followed general OpenZeppelin guidelines: functions revert instead\n * of returning `false` on failure. This behavior is nonetheless conventional\n * and does not conflict with the expectations of ERC20 applications.\n *\n * Additionally, an {Approval} event is emitted on calls to {transferFrom}.\n * This allows applications to reconstruct the allowance for all accounts just\n * by listening to said events. Other implementations of the EIP may not emit\n * these events, as it isn't required by the specification.\n *\n * Finally, the non-standard {decreaseAllowance} and {increaseAllowance}\n * functions have been added to mitigate the well-known issues around setting\n * allowances. See {IERC20-approve}.\n */\ncontract ERC20 is Context, IERC20, IERC20Metadata {\n    mapping (address => uint256) private _balances;\n\n    mapping (address => mapping (address => uint256)) private _allowances;\n\n    uint256 private _totalSupply;\n\n    string private _name;\n    string private _symbol;\n\n    /**\n     * @dev Sets the values for {name} and {symbol}.\n     *\n     * The defaut value of {decimals} is 18. To select a different value for\n     * {decimals} you should overload it.\n     *\n     * All two of these values are immutable: they can only be set once during\n     * construction.\n     */\n    constructor (string memory name_, string memory symbol_) {\n        _name = name_;\n        _symbol = symbol_;\n    }\n\n    /**\n     * @dev Returns the name of the token.\n     */\n    function name() public view virtual override returns (string memory) {\n        return _name;\n    }\n\n    /**\n     * @dev Returns the symbol of the token, usually a shorter version of the\n     * name.\n     */\n    function symbol() public view virtual override returns (string memory) {\n        return _symbol;\n    }\n\n    /**\n     * @dev Returns the number of decimals used to get its user representation.\n     * For example, if `decimals` equals `2`, a balance of `505` tokens should\n     * be displayed to a user as `5,05` (`505 / 10 ** 2`).\n     *\n     * Tokens usually opt for a value of 18, imitating the relationship between\n     * Ether and Wei. This is the value {ERC20} uses, unless this function is\n     * overridden;\n     *\n     * NOTE: This information is only used for _display_ purposes: it in\n     * no way affects any of the arithmetic of the contract, including\n     * {IERC20-balanceOf} and {IERC20-transfer}.\n     */\n    function decimals() public view virtual override returns (uint8) {\n        return 18;\n    }\n\n    /**\n     * @dev See {IERC20-totalSupply}.\n     */\n    function totalSupply() public view virtual override returns (uint256) {\n        return _totalSupply;\n    }\n\n    /**\n     * @dev See {IERC20-balanceOf}.\n     */\n    function balanceOf(address account) public view virtual override returns (uint256) {\n        return _balances[account];\n    }\n\n    /**\n     * @dev See {IERC20-transfer}.\n     *\n     * Requirements:\n     *\n     * - `recipient` cannot be the zero address.\n     * - the caller must have a balance of at least `amount`.\n     */\n    function transfer(address recipient, uint256 amount) public virtual override returns (bool) {\n        _transfer(_msgSender(), recipient, amount);\n        return true;\n    }\n\n    /**\n     * @dev See {IERC20-allowance}.\n     */\n    function allowance(address owner, address spender) public view virtual override returns (uint256) {\n        return _allowances[owner][spender];\n    }\n\n    /**\n     * @dev See {IERC20-approve}.\n     *\n     * Requirements:\n     *\n     * - `spender` cannot be the zero address.\n     */\n    function approve(address spender, uint256 amount) public virtual override returns (bool) {\n        _approve(_msgSender(), spender, amount);\n        return true;\n    }\n\n    /**\n     * @dev See {IERC20-transferFrom}.\n     *\n     * Emits an {Approval} event indicating the updated allowance. This is not\n     * required by the EIP. See the note at the beginning of {ERC20}.\n     *\n     * Requirements:\n     *\n     * - `sender` and `recipient` cannot be the zero address.\n     * - `sender` must have a balance of at least `amount`.\n     * - the caller must have allowance for ``sender``'s tokens of at least\n     * `amount`.\n     */\n    function transferFrom(address sender, address recipient, uint256 amount) public virtual override returns (bool) {\n        _transfer(sender, recipient, amount);\n\n        uint256 currentAllowance = _allowances[sender][_msgSender()];\n        require(currentAllowance >= amount, \"ERC20: transfer amount exceeds allowance\");\n        _approve(sender, _msgSender(), currentAllowance - amount);\n\n        return true;\n    }\n\n    /**\n     * @dev Atomically increases the allowance granted to `spender` by the caller.\n     *\n     * This is an alternative to {approve} that can be used as a mitigation for\n     * problems described in {IERC20-approve}.\n     *\n     * Emits an {Approval} event indicating the updated allowance.\n     *\n     * Requirements:\n     *\n     * - `spender` cannot be the zero address.\n     */\n    function increaseAllowance(address spender, uint256 addedValue) public virtual returns (bool) {\n        _approve(_msgSender(), spender, _allowances[_msgSender()][spender] + addedValue);\n        return true;\n    }\n\n    /**\n     * @dev Atomically decreases the allowance granted to `spender` by the caller.\n     *\n     * This is an alternative to {approve} that can be used as a mitigation for\n     * problems described in {IERC20-approve}.\n     *\n     * Emits an {Approval} event indicating the updated allowance.\n     *\n     * Requirements:\n     *\n     * - `spender` cannot be the zero address.\n     * - `spender` must have allowance for the caller of at least\n     * `subtractedValue`.\n     */\n    function decreaseAllowance(address spender, uint256 subtractedValue) public virtual returns (bool) {\n        uint256 currentAllowance = _allowances[_msgSender()][spender];\n        require(currentAllowance >= subtractedValue, \"ERC20: decreased allowance below zero\");\n        _approve(_msgSender(), spender, currentAllowance - subtractedValue);\n\n        return true;\n    }\n\n    /**\n     * @dev Moves tokens `amount` from `sender` to `recipient`.\n     *\n     * This is internal function is equivalent to {transfer}, and can be used to\n     * e.g. implement automatic token fees, slashing mechanisms, etc.\n     *\n     * Emits a {Transfer} event.\n     *\n     * Requirements:\n     *\n     * - `sender` cannot be the zero address.\n     * - `recipient` cannot be the zero address.\n     * - `sender` must have a balance of at least `amount`.\n     */\n    function _transfer(address sender, address recipient, uint256 amount) internal virtual {\n        require(sender != address(0), \"ERC20: transfer from the zero address\");\n        require(recipient != address(0), \"ERC20: transfer to the zero address\");\n\n        _beforeTokenTransfer(sender, recipient, amount);\n\n        uint256 senderBalance = _balances[sender];\n        require(senderBalance >= amount, \"ERC20: transfer amount exceeds balance\");\n        _balances[sender] = senderBalance - amount;\n        _balances[recipient] += amount;\n\n        emit Transfer(sender, recipient, amount);\n    }\n\n    /** @dev Creates `amount` tokens and assigns them to `account`, increasing\n     * the total supply.\n     *\n     * Emits a {Transfer} event with `from` set to the zero address.\n     *\n     * Requirements:\n     *\n     * - `to` cannot be the zero address.\n     */\n    function _mint(address account, uint256 amount) internal virtual {\n        require(account != address(0), \"ERC20: mint to the zero address\");\n\n        _beforeTokenTransfer(address(0), account, amount);\n\n        _totalSupply += amount;\n        _balances[account] += amount;\n        emit Transfer(address(0), account, amount);\n    }\n\n    /**\n     * @dev Destroys `amount` tokens from `account`, reducing the\n     * total supply.\n     *\n     * Emits a {Transfer} event with `to` set to the zero address.\n     *\n     * Requirements:\n     *\n     * - `account` cannot be the zero address.\n     * - `account` must have at least `amount` tokens.\n     */\n    function _burn(address account, uint256 amount) internal virtual {\n        require(account != address(0), \"ERC20: burn from the zero address\");\n\n        _beforeTokenTransfer(account, address(0), amount);\n\n        uint256 accountBalance = _balances[account];\n        require(accountBalance >= amount, \"ERC20: burn amount exceeds balance\");\n        _balances[account] = accountBalance - amount;\n        _totalSupply -= amount;\n\n        emit Transfer(account, address(0), amount);\n    }\n\n    /**\n     * @dev Sets `amount` as the allowance of `spender` over the `owner` s tokens.\n     *\n     * This internal function is equivalent to `approve`, and can be used to\n     * e.g. set automatic allowances for certain subsystems, etc.\n     *\n     * Emits an {Approval} event.\n     *\n     * Requirements:\n     *\n     * - `owner` cannot be the zero address.\n     * - `spender` cannot be the zero address.\n     */\n    function _approve(address owner, address spender, uint256 amount) internal virtual {\n        require(owner != address(0), \"ERC20: approve from the zero address\");\n        require(spender != address(0), \"ERC20: approve to the zero address\");\n\n        _allowances[owner][spender] = amount;\n        emit Approval(owner, spender, amount);\n    }\n\n    /**\n     * @dev Hook that is called before any transfer of tokens. This includes\n     * minting and burning.\n     *\n     * Calling conditions:\n     *\n     * - when `from` and `to` are both non-zero, `amount` of ``from``'s tokens\n     * will be to transferred to `to`.\n     * - when `from` is zero, `amount` tokens will be minted for `to`.\n     * - when `to` is zero, `amount` of ``from``'s tokens will be burned.\n     * - `from` and `to` are never both zero.\n     *\n     * To learn more about hooks, head to xref:ROOT:extending-contracts.adoc#using-hooks[Using Hooks].\n     */\n    function _beforeTokenTransfer(address from, address to, uint256 amount) internal virtual { }\n\n}\n\ncontract OpenDeFiGovernance is ERC20 {\n\n    string private constant ERROR_ADD_OVERFLOW = \"MATH_ADD_OVERFLOW\";\n    string private constant ERROR_SUB_UNDERFLOW = \"MATH_SUB_UNDERFLOW\";\n    string private constant ERROR_MUL_OVERFLOW = \"MATH_MUL_OVERFLOW\";\n    string private constant ERROR_DIV_ZERO = \"MATH_DIV_ZERO\";\n\n    /**\n    * @dev Multiplies two numbers, reverts on overflow.\n    */\n    function mul(uint256 _a, uint256 _b) internal pure returns (uint256) {\n        // Gas optimization: this is cheaper than requiring 'a' not being zero, but the\n        // benefit is lost if 'b' is also tested.\n        // See: https://github.com/OpenZeppelin/openzeppelin-solidity/pull/522\n        if (_a == 0) {\n            return 0;\n        }\n\n        uint256 c = _a * _b;\n        require(c / _a == _b, ERROR_MUL_OVERFLOW);\n\n        return c;\n    }\n\n    /**\n    * @dev Integer division of two numbers truncating the quotient, reverts on division by zero.\n    */\n    function div(uint256 _a, uint256 _b) internal pure returns (uint256) {\n        require(_b > 0, ERROR_DIV_ZERO); // Solidity only automatically asserts when dividing by 0\n        uint256 c = _a / _b;\n        // assert(_a == _b * c + _a % _b); // There is no case in which this doesn't hold\n\n        return c;\n    }\n\n    /**\n    * @dev Subtracts two numbers, reverts on overflow (i.e. if subtrahend is greater than minuend).\n    */\n    function sub(uint256 _a, uint256 _b) internal pure returns (uint256) {\n        require(_b <= _a, ERROR_SUB_UNDERFLOW);\n        uint256 c = _a - _b;\n\n        return c;\n    }\n\n    /**\n    * @dev Adds two numbers, reverts on overflow.\n    */\n    function add(uint256 _a, uint256 _b) internal pure returns (uint256) {\n        uint256 c = _a + _b;\n        require(c >= _a, ERROR_ADD_OVERFLOW);\n\n        return c;\n    }\n\n    /**\n    * @dev Divides two numbers and returns the remainder (unsigned integer modulo),\n    * reverts when dividing by zero.\n    */\n    function mod(uint256 a, uint256 b) internal pure returns (uint256) {\n        require(b != 0, ERROR_DIV_ZERO);\n        return a % b;\n    }\n\n    constructor(string memory name_, string memory symbol_, uint256 amount_, address deployer_) ERC20(name_, symbol_){\n        _mint(deployer_, amount_);\n    }\n    \n    string private constant ERROR_INSUFFICIENT_UNLOCKED = \"Not enough unlocked tokens for transfer\";\n    string private constant ERROR_LOCK_EXISTS = \"Token lock already exists\";\n    string private constant ERROR_INSUFFICIENT_TOKENS = \"Not enough tokens to lock\";\n    string private constant ERROR_EPOCH_ZERO = \"Unlock interval must be greater than zero\";\n    string private constant ERROR_BAD_UNLOCK_AMOUNT = \"Unlock amount must be between 1 and the locked amount\";\n    string private constant ERROR_CLEARING_LOCK = \"Cannot clear lock while tokens are locked\";\n    string private constant ERROR_BAD_NEW_UNLOCK_AMT = \"New unlock amount must be lower than current\";\n    string private constant ERROR_BAD_NEW_UNLOCK_TIME = \"New unlock time must be greater than current\";\n    string private constant ERROR_BAD_NEW_LOCKED_AMT = \"New amount locked must be greater than current\";\n    string private constant ERROR_NO_LOCKED_TOKENS = \"No tokens are locked, create new lock first\";\n    \n    \n    mapping (address => uint256) public lockTime; //the time tokens were locked\n    mapping (address => uint256) public unlockEpoch; //the time interval at which tokens unlock\n    mapping (address => uint256) public unlockedPerEpoch; // the number of tokens unlocked per unlockEpoch\n    mapping (address => uint256) public baseTokensLocked; // the number of tokens locked up by HOLDER\n    /**\n     * @dev Emitted when the token lock changes including initiating a new lock or updating an existing lock to be more strict\n     * `tokenHolder` is the address the lock pertains to\n     *  `amountLocked` is the amount of tokens locked \n     *  `time` is the (initial) time at which tokens were locked\n     *  `unlockPeriod` is the time interval at which tokens become unlockedPerPeriod\n     *  `unlockedPerPeriod` is the amount of token unlocked earch unlockPeriod\n     */\n    event  NewTokenLock(address tokenHolder, uint256 amountLocked, uint256 time, uint256 unlockPeriod, uint256 unlockedPerPeriod);\n    \n    /**\n     * @dev require that at least `amount` tokens are unlocked before transfer is possible\n     *  also permit if minting tokens (coming from 0x0)\n     *\n    */\n    function _beforeTokenTransfer(address from, address to, uint256 amount) internal  virtual override {\n            require(from == address(0x0) || amount <= balanceUnlocked(from), ERROR_INSUFFICIENT_UNLOCKED);\n    }\n    \n    /**\n     * @dev Lock `baseTokensLocked_` held by the caller with `unlockedPerEpoch_` tokens unlocking each `unlockEpoch_`\n     *\n     *\n     * Emits an {NewTokenLock} event indicating the updated terms of the token lockup.\n     *\n     * Requirements:\n     *\n     * - Must not be a prevoius lock for this address. If so, it must be cleared with a call to {clearLock}.\n     * - Must have at least a balance of `baseTokensLocked_` to lock\n     * - Must provide non-zero `unlockEpoch_`\n     * - Must have at least `unlockedPerEpoch_` tokens to unlock \n     *  - `unlockedPerEpoch_` must be greater than zero\n     */\n    \n    function newTokenLock(uint256 baseTokensLocked_, uint256 unlockEpoch_, uint256 unlockedPerEpoch_) public {\n        require(balanceLocked(msg.sender) == 0, ERROR_LOCK_EXISTS);\n        require(balanceOf(msg.sender) >= baseTokensLocked_, ERROR_INSUFFICIENT_TOKENS); \n        require(unlockEpoch_ > 0, ERROR_EPOCH_ZERO);\n        require(unlockedPerEpoch_ <= baseTokensLocked_ &&  unlockedPerEpoch_ > 0, ERROR_BAD_UNLOCK_AMOUNT);\n        lockTime[msg.sender] = block.timestamp;\n        unlockEpoch[msg.sender] = unlockEpoch_;\n        unlockedPerEpoch[msg.sender] = unlockedPerEpoch_;\n        baseTokensLocked[msg.sender] = baseTokensLocked_;\n        emit NewTokenLock(msg.sender, baseTokensLocked[msg.sender], lockTime[msg.sender], unlockEpoch[msg.sender], unlockedPerEpoch[msg.sender]);\n    }\n    \n    /**\n     * @dev Reset the lock state\n     *\n     * Requirements:\n     *\n     * - Must not have any tokens locked, currently\n     */\n    function clearLock() public {\n        require(balanceLocked(msg.sender) == 0, ERROR_CLEARING_LOCK);\n        lockTime[msg.sender] = 0;\n        unlockEpoch[msg.sender] = 0;\n        unlockedPerEpoch[msg.sender] = 0;\n        baseTokensLocked[msg.sender] = 0;\n    }\n    \n    /**\n     * @dev Returns the amount of tokens that are unlocked i.e. transferrable by `who`\n     *\n     */\n    function balanceUnlocked(address who) public view returns (uint256 amount) {\n        \n        return sub(balanceOf(who), balanceLocked(who));\n        \n    }\n    /**\n     * @dev Returns the amount of tokens that are locked and not transferrable by `who`\n     *\n     */\n    function balanceLocked(address who) public view returns (uint256 amount){\n        if(baseTokensLocked[who] == 0){\n            return 0;\n        }\n        //unlockedOverTime = unlockedPerEpoch[who]*((block.timestamp - lockTime[who]) / unlockEpoch[who])\n        uint256 unlockedOverTime = mul(unlockedPerEpoch[who] , (div( sub(block.timestamp, lockTime[who]) , unlockEpoch[who])));\n        if(baseTokensLocked[who] <  unlockedOverTime){\n            return 0;\n        }\n        return sub(baseTokensLocked[who], unlockedOverTime);\n        \n    }\n    /**\n     * @dev Reduce the amount of token unlocked each period to `newAmount`\n     * \n     * Emits an {NewTokenLock} event indicating the updated terms of the token lockup.\n     * \n     * Requires: \n     *  - There Must be tokens currently locked\n     *  - `newAmount` is less than the current amount\n     *\n     */\n    function reduceUnlockAmountTo(uint256 newAmount) public {\n        require(newAmount < unlockedPerEpoch[msg.sender], ERROR_BAD_NEW_UNLOCK_AMT);\n        require(balanceLocked(msg.sender) > 0, ERROR_NO_LOCKED_TOKENS);\n    \n        unlockedPerEpoch[msg.sender] = newAmount;\n        emit NewTokenLock(msg.sender, baseTokensLocked[msg.sender], lockTime[msg.sender], unlockEpoch[msg.sender], unlockedPerEpoch[msg.sender]);\n    \n    }\n    /**\n     * @dev Increase the duration of the period at which tokens are unlocked to `newTime`\n     * this will have the net effect of slowing the rate at which tokens are unlocked\n     * \n     * Emits an {NewTokenLock} event indicating the updated terms of the token lockup.\n     * \n     * Requires: \n     *  - There Must be tokens currently locked\n     *  - `newTime` is greater than the current period\n     *\n     */\n    function increaseUnlockTime(uint256 newTime) public {\n        require(newTime > unlockEpoch[msg.sender], ERROR_BAD_NEW_UNLOCK_TIME);\n        require(balanceLocked(msg.sender) > 0, ERROR_NO_LOCKED_TOKENS);\n    \n        unlockEpoch[msg.sender] = newTime;\n        emit NewTokenLock(msg.sender, baseTokensLocked[msg.sender], lockTime[msg.sender], unlockEpoch[msg.sender], unlockedPerEpoch[msg.sender]);\n    \n    }\n    /**\n     * @dev Increase the number of tokens locked by `newAmount`\n     * i.e. locks up more tokens.\n     * \n     *      \n     * Emits an {NewTokenLock} event indicating the updated terms of the token lockup.\n     * \n     * Requires: \n     *  - There Must be tokens currently locked\n     *  - `newAmount` is greater than zero\n     *  - there Must be sufficient unlocked tokens to lock\n     * \n     * Note: Will reset the countdown to the next token unlock epoch\n     *\n     */\n    function increaseTokensLocked(uint256 newAmount) public {\n        require(newAmount > 0, ERROR_BAD_NEW_LOCKED_AMT);\n        require(balanceLocked(msg.sender) > 0, ERROR_NO_LOCKED_TOKENS);\n        require(newAmount <= balanceUnlocked(msg.sender), ERROR_INSUFFICIENT_TOKENS);\n        //baseTokensLocked[msg.sender] = add(newAmount, baseTokensLocked[msg.sender]);\n        baseTokensLocked[msg.sender] = add(newAmount, balanceLocked(msg.sender));\n        lockTime[msg.sender] = block.timestamp;\n        emit NewTokenLock(msg.sender, baseTokensLocked[msg.sender], lockTime[msg.sender], unlockEpoch[msg.sender], unlockedPerEpoch[msg.sender]);\n    }\n}\n\n",
  "sourcePath": "/Users/zilanouyang/Downloads/governance-token/contracts/opendefi-governance-token.sol",
  "compiler": {
    "name": "solc",
    "version": "0.8.2+commit.661d1103.Emscripten.clang"
  },
  "schemaVersion": "3.3.4",
  "updatedAt": "2021-05-14T20:15:05.839Z",
  "devdoc": {
    "events": {
      "NewTokenLock(address,uint256,uint256,uint256,uint256)": {
        "details": "Emitted when the token lock changes including initiating a new lock or updating an existing lock to be more strict `tokenHolder` is the address the lock pertains to  `amountLocked` is the amount of tokens locked   `time` is the (initial) time at which tokens were locked  `unlockPeriod` is the time interval at which tokens become unlockedPerPeriod  `unlockedPerPeriod` is the amount of token unlocked earch unlockPeriod"
      }
    },
    "kind": "dev",
    "methods": {
      "allowance(address,address)": {
        "details": "See {IERC20-allowance}."
      },
      "approve(address,uint256)": {
        "details": "See {IERC20-approve}. Requirements: - `spender` cannot be the zero address."
      },
      "balanceLocked(address)": {
        "details": "Returns the amount of tokens that are locked and not transferrable by `who`"
      },
      "balanceOf(address)": {
        "details": "See {IERC20-balanceOf}."
      },
      "balanceUnlocked(address)": {
        "details": "Returns the amount of tokens that are unlocked i.e. transferrable by `who`"
      },
      "clearLock()": {
        "details": "Reset the lock state Requirements: - Must not have any tokens locked, currently"
      },
      "decimals()": {
        "details": "Returns the number of decimals used to get its user representation. For example, if `decimals` equals `2`, a balance of `505` tokens should be displayed to a user as `5,05` (`505 / 10 ** 2`). Tokens usually opt for a value of 18, imitating the relationship between Ether and Wei. This is the value {ERC20} uses, unless this function is overridden; NOTE: This information is only used for _display_ purposes: it in no way affects any of the arithmetic of the contract, including {IERC20-balanceOf} and {IERC20-transfer}."
      },
      "decreaseAllowance(address,uint256)": {
        "details": "Atomically decreases the allowance granted to `spender` by the caller. This is an alternative to {approve} that can be used as a mitigation for problems described in {IERC20-approve}. Emits an {Approval} event indicating the updated allowance. Requirements: - `spender` cannot be the zero address. - `spender` must have allowance for the caller of at least `subtractedValue`."
      },
      "increaseAllowance(address,uint256)": {
        "details": "Atomically increases the allowance granted to `spender` by the caller. This is an alternative to {approve} that can be used as a mitigation for problems described in {IERC20-approve}. Emits an {Approval} event indicating the updated allowance. Requirements: - `spender` cannot be the zero address."
      },
      "increaseTokensLocked(uint256)": {
        "details": "Increase the number of tokens locked by `newAmount` i.e. locks up more tokens.        Emits an {NewTokenLock} event indicating the updated terms of the token lockup.  Requires:   - There Must be tokens currently locked  - `newAmount` is greater than zero  - there Must be sufficient unlocked tokens to lock  Note: Will reset the countdown to the next token unlock epoch"
      },
      "increaseUnlockTime(uint256)": {
        "details": "Increase the duration of the period at which tokens are unlocked to `newTime` this will have the net effect of slowing the rate at which tokens are unlocked  Emits an {NewTokenLock} event indicating the updated terms of the token lockup.  Requires:   - There Must be tokens currently locked  - `newTime` is greater than the current period"
      },
      "name()": {
        "details": "Returns the name of the token."
      },
      "newTokenLock(uint256,uint256,uint256)": {
        "details": "Lock `baseTokensLocked_` held by the caller with `unlockedPerEpoch_` tokens unlocking each `unlockEpoch_` Emits an {NewTokenLock} event indicating the updated terms of the token lockup. Requirements: - Must not be a prevoius lock for this address. If so, it must be cleared with a call to {clearLock}. - Must have at least a balance of `baseTokensLocked_` to lock - Must provide non-zero `unlockEpoch_` - Must have at least `unlockedPerEpoch_` tokens to unlock   - `unlockedPerEpoch_` must be greater than zero"
      },
      "reduceUnlockAmountTo(uint256)": {
        "details": "Reduce the amount of token unlocked each period to `newAmount`  Emits an {NewTokenLock} event indicating the updated terms of the token lockup.  Requires:   - There Must be tokens currently locked  - `newAmount` is less than the current amount"
      },
      "symbol()": {
        "details": "Returns the symbol of the token, usually a shorter version of the name."
      },
      "totalSupply()": {
        "details": "See {IERC20-totalSupply}."
      },
      "transfer(address,uint256)": {
        "details": "See {IERC20-transfer}. Requirements: - `recipient` cannot be the zero address. - the caller must have a balance of at least `amount`."
      },
      "transferFrom(address,address,uint256)": {
        "details": "See {IERC20-transferFrom}. Emits an {Approval} event indicating the updated allowance. This is not required by the EIP. See the note at the beginning of {ERC20}. Requirements: - `sender` and `recipient` cannot be the zero address. - `sender` must have a balance of at least `amount`. - the caller must have allowance for ``sender``'s tokens of at least `amount`."
      }
    },
    "version": 1
  },
  "userdoc": {
    "kind": "user",
    "methods": {},
    "version": 1
  }
}